{
  "_format": "hh-sol-artifact-1",
  "contractName": "TrustChainEscrow",
  "sourceName": "contracts/TrustEscrow.sol",
  "abi": [
    {
      "inputs": [],
      "stateMutability": "nonpayable",
      "type": "constructor"
    },
    {
      "anonymous": false,
      "inputs": [
        {
          "indexed": true,
          "internalType": "uint256",
          "name": "schemeId",
          "type": "uint256"
        },
        {
          "indexed": true,
          "internalType": "address",
          "name": "from",
          "type": "address"
        },
        {
          "indexed": false,
          "internalType": "uint256",
          "name": "amount",
          "type": "uint256"
        }
      ],
      "name": "FundsDeposited",
      "type": "event"
    },
    {
      "anonymous": false,
      "inputs": [
        {
          "indexed": true,
          "internalType": "uint256",
          "name": "schemeId",
          "type": "uint256"
        },
        {
          "indexed": false,
          "internalType": "uint256",
          "name": "lockedAmount",
          "type": "uint256"
        }
      ],
      "name": "FundsLocked",
      "type": "event"
    },
    {
      "anonymous": false,
      "inputs": [
        {
          "indexed": true,
          "internalType": "uint256",
          "name": "schemeId",
          "type": "uint256"
        },
        {
          "indexed": true,
          "internalType": "uint256",
          "name": "milestoneId",
          "type": "uint256"
        },
        {
          "indexed": false,
          "internalType": "address",
          "name": "approver",
          "type": "address"
        }
      ],
      "name": "MilestoneApproved",
      "type": "event"
    },
    {
      "anonymous": false,
      "inputs": [
        {
          "indexed": true,
          "internalType": "uint256",
          "name": "schemeId",
          "type": "uint256"
        },
        {
          "indexed": true,
          "internalType": "uint256",
          "name": "milestoneId",
          "type": "uint256"
        },
        {
          "indexed": false,
          "internalType": "uint256",
          "name": "amount",
          "type": "uint256"
        }
      ],
      "name": "MilestoneCreated",
      "type": "event"
    },
    {
      "anonymous": false,
      "inputs": [
        {
          "indexed": true,
          "internalType": "uint256",
          "name": "schemeId",
          "type": "uint256"
        },
        {
          "indexed": true,
          "internalType": "uint256",
          "name": "milestoneId",
          "type": "uint256"
        },
        {
          "indexed": false,
          "internalType": "address",
          "name": "approver",
          "type": "address"
        }
      ],
      "name": "MilestoneRejected",
      "type": "event"
    },
    {
      "anonymous": false,
      "inputs": [
        {
          "indexed": true,
          "internalType": "uint256",
          "name": "schemeId",
          "type": "uint256"
        },
        {
          "indexed": true,
          "internalType": "uint256",
          "name": "milestoneId",
          "type": "uint256"
        },
        {
          "indexed": false,
          "internalType": "enum TrustChainEscrow.MilestoneStatus",
          "name": "status",
          "type": "uint8"
        }
      ],
      "name": "MilestoneStatusUpdated",
      "type": "event"
    },
    {
      "anonymous": false,
      "inputs": [
        {
          "indexed": true,
          "internalType": "uint256",
          "name": "schemeId",
          "type": "uint256"
        },
        {
          "indexed": true,
          "internalType": "uint256",
          "name": "milestoneId",
          "type": "uint256"
        },
        {
          "indexed": true,
          "internalType": "address",
          "name": "vendor",
          "type": "address"
        },
        {
          "indexed": false,
          "internalType": "uint256",
          "name": "amount",
          "type": "uint256"
        }
      ],
      "name": "PaymentReleased",
      "type": "event"
    },
    {
      "anonymous": false,
      "inputs": [
        {
          "indexed": true,
          "internalType": "uint256",
          "name": "schemeId",
          "type": "uint256"
        },
        {
          "indexed": true,
          "internalType": "uint256",
          "name": "milestoneId",
          "type": "uint256"
        },
        {
          "indexed": true,
          "internalType": "address",
          "name": "vendor",
          "type": "address"
        },
        {
          "indexed": false,
          "internalType": "string",
          "name": "ipfsHash",
          "type": "string"
        }
      ],
      "name": "ProofSubmitted",
      "type": "event"
    },
    {
      "anonymous": false,
      "inputs": [
        {
          "indexed": true,
          "internalType": "uint256",
          "name": "schemeId",
          "type": "uint256"
        },
        {
          "indexed": true,
          "internalType": "uint256",
          "name": "milestoneId",
          "type": "uint256"
        },
        {
          "indexed": false,
          "internalType": "string",
          "name": "ipfsHash",
          "type": "string"
        }
      ],
      "name": "QuotationStored",
      "type": "event"
    },
    {
      "anonymous": false,
      "inputs": [
        {
          "indexed": true,
          "internalType": "uint256",
          "name": "schemeId",
          "type": "uint256"
        },
        {
          "indexed": true,
          "internalType": "uint256",
          "name": "milestoneId",
          "type": "uint256"
        },
        {
          "indexed": true,
          "internalType": "address",
          "name": "to",
          "type": "address"
        },
        {
          "indexed": false,
          "internalType": "uint256",
          "name": "amount",
          "type": "uint256"
        }
      ],
      "name": "RefundIssued",
      "type": "event"
    },
    {
      "anonymous": false,
      "inputs": [
        {
          "indexed": true,
          "internalType": "uint256",
          "name": "schemeId",
          "type": "uint256"
        },
        {
          "indexed": true,
          "internalType": "address",
          "name": "by",
          "type": "address"
        }
      ],
      "name": "SchemeCreated",
      "type": "event"
    },
    {
      "anonymous": false,
      "inputs": [
        {
          "indexed": true,
          "internalType": "uint256",
          "name": "schemeId",
          "type": "uint256"
        },
        {
          "indexed": true,
          "internalType": "uint256",
          "name": "milestoneId",
          "type": "uint256"
        },
        {
          "indexed": false,
          "internalType": "address",
          "name": "vendor",
          "type": "address"
        }
      ],
      "name": "VendorSet",
      "type": "event"
    },
    {
      "inputs": [
        {
          "internalType": "uint256",
          "name": "schemeId",
          "type": "uint256"
        },
        {
          "internalType": "uint256",
          "name": "milestoneId",
          "type": "uint256"
        }
      ],
      "name": "approveProof",
      "outputs": [],
      "stateMutability": "nonpayable",
      "type": "function"
    },
    {
      "inputs": [
        {
          "internalType": "uint256",
          "name": "schemeId",
          "type": "uint256"
        },
        {
          "internalType": "uint256",
          "name": "milestoneId",
          "type": "uint256"
        },
        {
          "internalType": "uint256",
          "name": "amount",
          "type": "uint256"
        }
      ],
      "name": "createMilestone",
      "outputs": [],
      "stateMutability": "nonpayable",
      "type": "function"
    },
    {
      "inputs": [
        {
          "internalType": "uint256",
          "name": "projectId",
          "type": "uint256"
        }
      ],
      "name": "createProject",
      "outputs": [],
      "stateMutability": "nonpayable",
      "type": "function"
    },
    {
      "inputs": [
        {
          "internalType": "uint256",
          "name": "schemeId",
          "type": "uint256"
        }
      ],
      "name": "createScheme",
      "outputs": [],
      "stateMutability": "nonpayable",
      "type": "function"
    },
    {
      "inputs": [
        {
          "internalType": "uint256",
          "name": "schemeId",
          "type": "uint256"
        }
      ],
      "name": "depositFunds",
      "outputs": [],
      "stateMutability": "payable",
      "type": "function"
    },
    {
      "inputs": [
        {
          "internalType": "uint256",
          "name": "schemeId",
          "type": "uint256"
        },
        {
          "internalType": "uint256",
          "name": "amount",
          "type": "uint256"
        }
      ],
      "name": "depositFunds",
      "outputs": [],
      "stateMutability": "payable",
      "type": "function"
    },
    {
      "inputs": [
        {
          "internalType": "uint256",
          "name": "schemeId",
          "type": "uint256"
        },
        {
          "internalType": "address",
          "name": "donor",
          "type": "address"
        }
      ],
      "name": "getDonorContribution",
      "outputs": [
        {
          "internalType": "uint256",
          "name": "",
          "type": "uint256"
        }
      ],
      "stateMutability": "view",
      "type": "function"
    },
    {
      "inputs": [],
      "name": "getEscrowNativeBalance",
      "outputs": [
        {
          "internalType": "uint256",
          "name": "",
          "type": "uint256"
        }
      ],
      "stateMutability": "view",
      "type": "function"
    },
    {
      "inputs": [
        {
          "internalType": "uint256",
          "name": "schemeId",
          "type": "uint256"
        },
        {
          "internalType": "uint256",
          "name": "milestoneId",
          "type": "uint256"
        }
      ],
      "name": "getMilestone",
      "outputs": [
        {
          "components": [
            {
              "internalType": "uint256",
              "name": "amount",
              "type": "uint256"
            },
            {
              "internalType": "address payable",
              "name": "vendor",
              "type": "address"
            },
            {
              "internalType": "string",
              "name": "quotationHash",
              "type": "string"
            },
            {
              "internalType": "string",
              "name": "proofHash",
              "type": "string"
            },
            {
              "internalType": "enum TrustChainEscrow.MilestoneStatus",
              "name": "status",
              "type": "uint8"
            }
          ],
          "internalType": "struct TrustChainEscrow.Milestone",
          "name": "",
          "type": "tuple"
        }
      ],
      "stateMutability": "view",
      "type": "function"
    },
    {
      "inputs": [
        {
          "internalType": "uint256",
          "name": "schemeId",
          "type": "uint256"
        },
        {
          "internalType": "uint256",
          "name": "milestoneId",
          "type": "uint256"
        }
      ],
      "name": "getProof",
      "outputs": [
        {
          "components": [
            {
              "internalType": "address",
              "name": "vendor",
              "type": "address"
            },
            {
              "internalType": "string",
              "name": "ipfsHash",
              "type": "string"
            }
          ],
          "internalType": "struct TrustChainEscrow.ProofRecord",
          "name": "",
          "type": "tuple"
        }
      ],
      "stateMutability": "view",
      "type": "function"
    },
    {
      "inputs": [
        {
          "internalType": "uint256",
          "name": "schemeId",
          "type": "uint256"
        }
      ],
      "name": "getSchemeBalance",
      "outputs": [
        {
          "internalType": "uint256",
          "name": "",
          "type": "uint256"
        }
      ],
      "stateMutability": "view",
      "type": "function"
    },
    {
      "inputs": [
        {
          "internalType": "uint256",
          "name": "schemeId",
          "type": "uint256"
        }
      ],
      "name": "getSchemeStats",
      "outputs": [
        {
          "internalType": "uint256",
          "name": "totalDeposited",
          "type": "uint256"
        },
        {
          "internalType": "uint256",
          "name": "totalReleased",
          "type": "uint256"
        },
        {
          "internalType": "uint256",
          "name": "totalRefunded",
          "type": "uint256"
        },
        {
          "internalType": "bool",
          "name": "locked",
          "type": "bool"
        }
      ],
      "stateMutability": "view",
      "type": "function"
    },
    {
      "inputs": [
        {
          "internalType": "uint256",
          "name": "schemeId",
          "type": "uint256"
        }
      ],
      "name": "lockFunds",
      "outputs": [],
      "stateMutability": "nonpayable",
      "type": "function"
    },
    {
      "inputs": [],
      "name": "owner",
      "outputs": [
        {
          "internalType": "address",
          "name": "",
          "type": "address"
        }
      ],
      "stateMutability": "view",
      "type": "function"
    },
    {
      "inputs": [
        {
          "internalType": "uint256",
          "name": "schemeId",
          "type": "uint256"
        },
        {
          "internalType": "uint256",
          "name": "milestoneId",
          "type": "uint256"
        }
      ],
      "name": "refundIfRejected",
      "outputs": [],
      "stateMutability": "nonpayable",
      "type": "function"
    },
    {
      "inputs": [
        {
          "internalType": "uint256",
          "name": "schemeId",
          "type": "uint256"
        },
        {
          "internalType": "uint256",
          "name": "milestoneId",
          "type": "uint256"
        },
        {
          "internalType": "address payable",
          "name": "to",
          "type": "address"
        }
      ],
      "name": "refundIfRejected",
      "outputs": [],
      "stateMutability": "nonpayable",
      "type": "function"
    },
    {
      "inputs": [
        {
          "internalType": "uint256",
          "name": "schemeId",
          "type": "uint256"
        },
        {
          "internalType": "uint256",
          "name": "milestoneId",
          "type": "uint256"
        }
      ],
      "name": "rejectProof",
      "outputs": [],
      "stateMutability": "nonpayable",
      "type": "function"
    },
    {
      "inputs": [
        {
          "internalType": "uint256",
          "name": "schemeId",
          "type": "uint256"
        },
        {
          "internalType": "uint256",
          "name": "milestoneId",
          "type": "uint256"
        },
        {
          "internalType": "address payable",
          "name": "vendorWallet",
          "type": "address"
        }
      ],
      "name": "releasePayment",
      "outputs": [],
      "stateMutability": "nonpayable",
      "type": "function"
    },
    {
      "inputs": [
        {
          "internalType": "uint256",
          "name": "schemeId",
          "type": "uint256"
        },
        {
          "internalType": "uint256",
          "name": "milestoneId",
          "type": "uint256"
        }
      ],
      "name": "releasePayment",
      "outputs": [],
      "stateMutability": "nonpayable",
      "type": "function"
    },
    {
      "inputs": [
        {
          "internalType": "uint256",
          "name": "schemeId",
          "type": "uint256"
        }
      ],
      "name": "schemeExists",
      "outputs": [
        {
          "internalType": "bool",
          "name": "",
          "type": "bool"
        }
      ],
      "stateMutability": "view",
      "type": "function"
    },
    {
      "inputs": [
        {
          "internalType": "uint256",
          "name": "schemeId",
          "type": "uint256"
        },
        {
          "internalType": "uint256",
          "name": "milestoneId",
          "type": "uint256"
        },
        {
          "internalType": "address payable",
          "name": "vendor",
          "type": "address"
        }
      ],
      "name": "setVendorForMilestone",
      "outputs": [],
      "stateMutability": "nonpayable",
      "type": "function"
    },
    {
      "inputs": [
        {
          "internalType": "uint256",
          "name": "schemeId",
          "type": "uint256"
        },
        {
          "internalType": "uint256",
          "name": "milestoneId",
          "type": "uint256"
        },
        {
          "internalType": "string",
          "name": "ipfsHash",
          "type": "string"
        }
      ],
      "name": "storeQuotationHash",
      "outputs": [],
      "stateMutability": "nonpayable",
      "type": "function"
    },
    {
      "inputs": [
        {
          "internalType": "uint256",
          "name": "schemeId",
          "type": "uint256"
        },
        {
          "internalType": "uint256",
          "name": "milestoneId",
          "type": "uint256"
        },
        {
          "internalType": "string",
          "name": "ipfsHash",
          "type": "string"
        }
      ],
      "name": "submitProof",
      "outputs": [],
      "stateMutability": "nonpayable",
      "type": "function"
    },
    {
      "inputs": [
        {
          "internalType": "address",
          "name": "newOwner",
          "type": "address"
        }
      ],
      "name": "transferOwnership",
      "outputs": [],
      "stateMutability": "nonpayable",
      "type": "function"
    },
    {
      "inputs": [
        {
          "internalType": "uint256",
          "name": "schemeId",
          "type": "uint256"
        },
        {
          "internalType": "uint256",
          "name": "milestoneId",
          "type": "uint256"
        },
        {
          "internalType": "enum TrustChainEscrow.MilestoneStatus",
          "name": "newStatus",
          "type": "uint8"
        }
      ],
      "name": "updateMilestoneStatus",
      "outputs": [],
      "stateMutability": "nonpayable",
      "type": "function"
    }
  ],
  "bytecode": "0x60806040526001805534801561001457600080fd5b50336000806101000a81548173ffffffffffffffffffffffffffffffffffffffff021916908373ffffffffffffffffffffffffffffffffffffffff160217905550614d28806100646000396000f3fe6080604052600436106101665760003560e01c80638c8f95fb116100d1578063a1be44e01161008a578063dbf0d39c11610064578063dbf0d39c14610505578063e9437e4614610542578063f2fde38b1461057f578063f8379c73146105a857610166565b8063a1be44e01461045f578063b3493d6a1461049c578063c2a5a2e6146104c557610166565b80638c8f95fb146103535780638da5cb5b1461037c5780638ed9895c146103a757806395f01e58146103e457806397e99a801461040d578063992034d71461043657610166565b8063450d766511610123578063450d76651461026857806361638ed51461029157806362d6aac0146102ad57806382148fc5146102d657806383d8813a146102ff5780638bb36cd61461032857610166565b806308f623131461016b57806309e60ec6146101a85780631c634a35146101d157806325de5efc146101fa57806335a0e5b9146102235780633b76594d1461024c575b600080fd5b34801561017757600080fd5b50610192600480360381019061018d91906134a1565b6105d1565b60405161019f91906135ef565b60405180910390f35b3480156101b457600080fd5b506101cf60048036038101906101ca9190613611565b6106fb565b005b3480156101dd57600080fd5b506101f860048036038101906101f39190613663565b610857565b005b34801561020657600080fd5b50610221600480360381019061021c91906136b6565b610a4a565b005b34801561022f57600080fd5b5061024a60048036038101906102459190613747565b610d77565b005b61026660048036038101906102619190613611565b611255565b005b34801561027457600080fd5b5061028f600480360381019061028a91906134a1565b611262565b005b6102ab60048036038101906102a691906134a1565b6114df565b005b3480156102b957600080fd5b506102d460048036038101906102cf9190613747565b61152f565b005b3480156102e257600080fd5b506102fd60048036038101906102f891906137ff565b61189c565b005b34801561030b57600080fd5b50610326600480360381019061032191906134a1565b611a7a565b005b34801561033457600080fd5b5061033d611b8a565b60405161034a9190613882565b60405180910390f35b34801561035f57600080fd5b5061037a60048036038101906103759190613611565b611b92565b005b34801561038857600080fd5b50610391611dd3565b60405161039e91906138ac565b60405180910390f35b3480156103b357600080fd5b506103ce60048036038101906103c991906134a1565b611df7565b6040516103db91906139d9565b60405180910390f35b3480156103f057600080fd5b5061040b600480360381019061040691906137ff565b611ff8565b005b34801561041957600080fd5b50610434600480360381019061042f91906134a1565b61241f565b005b34801561044257600080fd5b5061045d60048036038101906104589190613611565b61286a565b005b34801561046b57600080fd5b5061048660048036038101906104819190613a27565b612904565b6040516104939190613882565b60405180910390f35b3480156104a857600080fd5b506104c360048036038101906104be9190613747565b612962565b005b3480156104d157600080fd5b506104ec60048036038101906104e79190613611565b612a53565b6040516104fc9493929190613a82565b60405180910390f35b34801561051157600080fd5b5061052c60048036038101906105279190613611565b612aa1565b6040516105399190613ac7565b60405180910390f35b34801561054e57600080fd5b5061056960048036038101906105649190613611565b612ace565b6040516105769190613882565b60405180910390f35b34801561058b57600080fd5b506105a660048036038101906105a19190613ae2565b612aee565b005b3480156105b457600080fd5b506105cf60048036038101906105ca91906134a1565b612c2e565b005b6105d96133da565b6002600084815260200190815260200160002060070160008381526020019081526020016000206040518060400160405290816000820160009054906101000a900473ffffffffffffffffffffffffffffffffffffffff1673ffffffffffffffffffffffffffffffffffffffff1673ffffffffffffffffffffffffffffffffffffffff16815260200160018201805461067190613b3e565b80601f016020809104026020016040519081016040528092919081815260200182805461069d90613b3e565b80156106ea5780601f106106bf576101008083540402835291602001916106ea565b820191906000526020600020905b8154815290600101906020018083116106cd57829003601f168201915b505050505081525050905092915050565b60008054906101000a900473ffffffffffffffffffffffffffffffffffffffff1673ffffffffffffffffffffffffffffffffffffffff163373ffffffffffffffffffffffffffffffffffffffff1614610789576040517f08c379a000000000000000000000000000000000000000000000000000000000815260040161078090613bcc565b60405180910390fd5b60006002600083815260200190815260200160002090508060000160009054906101000a900460ff16156107f2576040517f08c379a00000000000000000000000000000000000000000000000000000000081526004016107e990613c38565b60405180910390fd5b60018160000160006101000a81548160ff0219169083151502179055503373ffffffffffffffffffffffffffffffffffffffff16827f1aaa800b82997eacb224a5de06c088e277668245cb68c13f3bf4d2fa58e0863160405160405180910390a35050565b60008054906101000a900473ffffffffffffffffffffffffffffffffffffffff1673ffffffffffffffffffffffffffffffffffffffff163373ffffffffffffffffffffffffffffffffffffffff16146108e5576040517f08c379a00000000000000000000000000000000000000000000000000000000081526004016108dc90613bcc565b60405180910390fd5b60006002600085815260200190815260200160002090508060000160009054906101000a900460ff1661094d576040517f08c379a000000000000000000000000000000000000000000000000000000000815260040161094490613ca4565b60405180910390fd5b600081600601600085815260200190815260200160002090506000600681111561097a576109796138e5565b5b8160040160009054906101000a900460ff16600681111561099e5761099d6138e5565b5b036109de576040517f08c379a00000000000000000000000000000000000000000000000000000000081526004016109d590613d10565b60405180910390fd5b828160040160006101000a81548160ff02191690836006811115610a0557610a046138e5565b5b021790555083857f855d7f62719d90b6dffa5d0c4b7a917b0e8a2fe2521d54486fda68888305e20185604051610a3b9190613d3f565b60405180910390a35050505050565b60008054906101000a900473ffffffffffffffffffffffffffffffffffffffff1673ffffffffffffffffffffffffffffffffffffffff163373ffffffffffffffffffffffffffffffffffffffff1614610ad8576040517f08c379a0000000000000000000000000000000000000000000000000000000008152600401610acf90613bcc565b60405180910390fd5b60006002600085815260200190815260200160002090508060000160009054906101000a900460ff16610b40576040517f08c379a0000000000000000000000000000000000000000000000000000000008152600401610b3790613ca4565b60405180910390fd5b6000816006016000858152602001908152602001600020905060006006811115610b6d57610b6c6138e5565b5b8160040160009054906101000a900460ff166006811115610b9157610b906138e5565b5b14610bd1576040517f08c379a0000000000000000000000000000000000000000000000000000000008152600401610bc890613da6565b60405180910390fd5b60008311610c14576040517f08c379a0000000000000000000000000000000000000000000000000000000008152600401610c0b90613e12565b60405180910390fd5b8160040160009054906101000a900460ff1615610c8c576000610c3683612e6b565b905082600101548482610c499190613e61565b1115610c8a576040517f08c379a0000000000000000000000000000000000000000000000000000000008152600401610c8190613ee1565b60405180910390fd5b505b82816000018190555060018160040160006101000a81548160ff02191690836006811115610cbd57610cbc6138e5565b5b02179055508160080184908060018154018082558091505060019003906000526020600020016000909190919091505583857fb59c2d823e6ca395c24829d80f43a97d9c6fd711596372c5a4663af872f4b9d285604051610d1e9190613882565b60405180910390a383857f855d7f62719d90b6dffa5d0c4b7a917b0e8a2fe2521d54486fda68888305e2018360040160009054906101000a900460ff16604051610d689190613d3f565b60405180910390a35050505050565b60008054906101000a900473ffffffffffffffffffffffffffffffffffffffff1673ffffffffffffffffffffffffffffffffffffffff163373ffffffffffffffffffffffffffffffffffffffff1614610e05576040517f08c379a0000000000000000000000000000000000000000000000000000000008152600401610dfc90613bcc565b60405180910390fd5b6001805414610e49576040517f08c379a0000000000000000000000000000000000000000000000000000000008152600401610e4090613f4d565b60405180910390fd5b600260018190555060006002600085815260200190815260200160002090508060000160009054906101000a900460ff16610eb9576040517f08c379a0000000000000000000000000000000000000000000000000000000008152600401610eb090613ca4565b60405180910390fd5b8060040160009054906101000a900460ff16610f0a576040517f08c379a0000000000000000000000000000000000000000000000000000000008152600401610f0190613fb9565b60405180910390fd5b600081600601600085815260200190815260200160002090508273ffffffffffffffffffffffffffffffffffffffff168160010160009054906101000a900473ffffffffffffffffffffffffffffffffffffffff1673ffffffffffffffffffffffffffffffffffffffff1614610fb5576040517f08c379a0000000000000000000000000000000000000000000000000000000008152600401610fac90614025565b60405180910390fd5b60036006811115610fc957610fc86138e5565b5b8160040160009054906101000a900460ff166006811115610fed57610fec6138e5565b5b1461102d576040517f08c379a000000000000000000000000000000000000000000000000000000000815260040161102490614091565b60405180910390fd5b6000816000015411611074576040517f08c379a000000000000000000000000000000000000000000000000000000000815260040161106b906140fd565b60405180910390fd5b600073ffffffffffffffffffffffffffffffffffffffff168160010160009054906101000a900473ffffffffffffffffffffffffffffffffffffffff1673ffffffffffffffffffffffffffffffffffffffff1603611107576040517f08c379a00000000000000000000000000000000000000000000000000000000081526004016110fe90614169565b60405180910390fd5b60058160040160006101000a81548160ff0219169083600681111561112f5761112e6138e5565b5b02179055506111668160010160009054906101000a900473ffffffffffffffffffffffffffffffffffffffff168260000154612ee3565b806000015482600201600082825461117e9190613e61565b925050819055508060010160009054906101000a900473ffffffffffffffffffffffffffffffffffffffff1673ffffffffffffffffffffffffffffffffffffffff1684867f9ba01c1cf20940d4ad9b32173c4bd46bf426aae91b6cb420123d2aa5e2b76c6f84600001546040516111f59190613882565b60405180910390a483857f855d7f62719d90b6dffa5d0c4b7a917b0e8a2fe2521d54486fda68888305e2018360040160009054906101000a900460ff1660405161123f9190613d3f565b60405180910390a3505060018081905550505050565b61125f8134612fd7565b50565b60008054906101000a900473ffffffffffffffffffffffffffffffffffffffff1673ffffffffffffffffffffffffffffffffffffffff163373ffffffffffffffffffffffffffffffffffffffff16146112f0576040517f08c379a00000000000000000000000000000000000000000000000000000000081526004016112e790613bcc565b60405180910390fd5b60006002600084815260200190815260200160002090508060000160009054906101000a900460ff16611358576040517f08c379a000000000000000000000000000000000000000000000000000000000815260040161134f90613ca4565b60405180910390fd5b6000816006016000848152602001908152602001600020905060026006811115611385576113846138e5565b5b8160040160009054906101000a900460ff1660068111156113a9576113a86138e5565b5b14806113ea5750600360068111156113c4576113c36138e5565b5b8160040160009054906101000a900460ff1660068111156113e8576113e76138e5565b5b145b611429576040517f08c379a0000000000000000000000000000000000000000000000000000000008152600401611420906141d5565b60405180910390fd5b60048160040160006101000a81548160ff02191690836006811115611451576114506138e5565b5b021790555082847f888c5547e7a66deaaeef7cc96fdf1b39154057815e8d0f702c46858d074e66a53360405161148791906138ac565b60405180910390a382847f855d7f62719d90b6dffa5d0c4b7a917b0e8a2fe2521d54486fda68888305e2018360040160009054906101000a900460ff166040516114d19190613d3f565b60405180910390a350505050565b803414611521576040517f08c379a000000000000000000000000000000000000000000000000000000000815260040161151890614241565b60405180910390fd5b61152b8234612fd7565b5050565b60008054906101000a900473ffffffffffffffffffffffffffffffffffffffff1673ffffffffffffffffffffffffffffffffffffffff163373ffffffffffffffffffffffffffffffffffffffff16146115bd576040517f08c379a00000000000000000000000000000000000000000000000000000000081526004016115b490613bcc565b60405180910390fd5b600073ffffffffffffffffffffffffffffffffffffffff168173ffffffffffffffffffffffffffffffffffffffff160361162c576040517f08c379a0000000000000000000000000000000000000000000000000000000008152600401611623906142ad565b60405180910390fd5b60006002600085815260200190815260200160002090508060000160009054906101000a900460ff16611694576040517f08c379a000000000000000000000000000000000000000000000000000000000815260040161168b90613ca4565b60405180910390fd5b60008160060160008581526020019081526020016000209050600160068111156116c1576116c06138e5565b5b8160040160009054906101000a900460ff1660068111156116e5576116e46138e5565b5b1480611726575060006006811115611700576116ff6138e5565b5b8160040160009054906101000a900460ff166006811115611724576117236138e5565b5b145b611765576040517f08c379a000000000000000000000000000000000000000000000000000000000815260040161175c90614319565b60405180910390fd5b828160010160006101000a81548173ffffffffffffffffffffffffffffffffffffffff021916908373ffffffffffffffffffffffffffffffffffffffff160217905550600060068111156117bc576117bb6138e5565b5b8160040160009054906101000a900460ff1660068111156117e0576117df6138e5565b5b036118135760018160040160006101000a81548160ff0219169083600681111561180d5761180c6138e5565b5b02179055505b83857e07b4da7665cb1a9b434a28d0968f4abf163ba54d5083155486ab73dd83517f856040516118439190614398565b60405180910390a383857f855d7f62719d90b6dffa5d0c4b7a917b0e8a2fe2521d54486fda68888305e2018360040160009054906101000a900460ff1660405161188d9190613d3f565b60405180910390a35050505050565b60008054906101000a900473ffffffffffffffffffffffffffffffffffffffff1673ffffffffffffffffffffffffffffffffffffffff163373ffffffffffffffffffffffffffffffffffffffff161461192a576040517f08c379a000000000000000000000000000000000000000000000000000000000815260040161192190613bcc565b60405180910390fd5b60006002600086815260200190815260200160002090508060000160009054906101000a900460ff16611992576040517f08c379a000000000000000000000000000000000000000000000000000000000815260040161198990613ca4565b60405180910390fd5b60008160060160008681526020019081526020016000209050600060068111156119bf576119be6138e5565b5b8160040160009054906101000a900460ff1660068111156119e3576119e26138e5565b5b03611a23576040517f08c379a0000000000000000000000000000000000000000000000000000000008152600401611a1a906143ff565b60405180910390fd5b8383826002019182611a369291906145fb565b5084867ff8ea1fefc4a87b20c49a437e84dffac361b2a837f15920f58d727c93c85951898686604051611a6a929190614707565b60405180910390a3505050505050565b60008054906101000a900473ffffffffffffffffffffffffffffffffffffffff1673ffffffffffffffffffffffffffffffffffffffff163373ffffffffffffffffffffffffffffffffffffffff1614611b08576040517f08c379a0000000000000000000000000000000000000000000000000000000008152600401611aff90613bcc565b60405180910390fd5b6001805414611b4c576040517f08c379a0000000000000000000000000000000000000000000000000000000008152600401611b4390613f4d565b60405180910390fd5b6002600181905550611b7f828260008054906101000a900473ffffffffffffffffffffffffffffffffffffffff1661319b565b600180819055505050565b600047905090565b60008054906101000a900473ffffffffffffffffffffffffffffffffffffffff1673ffffffffffffffffffffffffffffffffffffffff163373ffffffffffffffffffffffffffffffffffffffff1614611c20576040517f08c379a0000000000000000000000000000000000000000000000000000000008152600401611c1790613bcc565b60405180910390fd5b60006002600083815260200190815260200160002090508060000160009054906101000a900460ff16611c88576040517f08c379a0000000000000000000000000000000000000000000000000000000008152600401611c7f90613ca4565b60405180910390fd5b8060040160009054906101000a900460ff1615611cda576040517f08c379a0000000000000000000000000000000000000000000000000000000008152600401611cd190614777565b60405180910390fd5b6000816001015411611d21576040517f08c379a0000000000000000000000000000000000000000000000000000000008152600401611d18906147e3565b60405180910390fd5b6000611d2c82612e6b565b90508160010154811115611d75576040517f08c379a0000000000000000000000000000000000000000000000000000000008152600401611d6c90613ee1565b60405180910390fd5b60018260040160006101000a81548160ff021916908315150217905550827fbedc4e5ac6876307c4b4b5761039aa2ebce89052490a34e15cc655d9142ba0dc8360010154604051611dc69190613882565b60405180910390a2505050565b60008054906101000a900473ffffffffffffffffffffffffffffffffffffffff1681565b611dff61340a565b6002600084815260200190815260200160002060060160008381526020019081526020016000206040518060a0016040529081600082015481526020016001820160009054906101000a900473ffffffffffffffffffffffffffffffffffffffff1673ffffffffffffffffffffffffffffffffffffffff1673ffffffffffffffffffffffffffffffffffffffff168152602001600282018054611ea190613b3e565b80601f0160208091040260200160405190810160405280929190818152602001828054611ecd90613b3e565b8015611f1a5780601f10611eef57610100808354040283529160200191611f1a565b820191906000526020600020905b815481529060010190602001808311611efd57829003601f168201915b50505050508152602001600382018054611f3390613b3e565b80601f0160208091040260200160405190810160405280929190818152602001828054611f5f90613b3e565b8015611fac5780601f10611f8157610100808354040283529160200191611fac565b820191906000526020600020905b815481529060010190602001808311611f8f57829003601f168201915b505050505081526020016004820160009054906101000a900460ff166006811115611fda57611fd96138e5565b5b6006811115611fec57611feb6138e5565b5b81525050905092915050565b60006002600086815260200190815260200160002090508060000160009054906101000a900460ff16612060576040517f08c379a000000000000000000000000000000000000000000000000000000000815260040161205790613ca4565b60405180910390fd5b600081600601600086815260200190815260200160002090506001600681111561208d5761208c6138e5565b5b8160040160009054906101000a900460ff1660068111156120b1576120b06138e5565b5b14806120f25750600460068111156120cc576120cb6138e5565b5b8160040160009054906101000a900460ff1660068111156120f0576120ef6138e5565b5b145b612131576040517f08c379a00000000000000000000000000000000000000000000000000000000081526004016121289061484f565b60405180910390fd5b600073ffffffffffffffffffffffffffffffffffffffff168160010160009054906101000a900473ffffffffffffffffffffffffffffffffffffffff1673ffffffffffffffffffffffffffffffffffffffff16036121c4576040517f08c379a00000000000000000000000000000000000000000000000000000000081526004016121bb906148bb565b60405180910390fd5b8060010160009054906101000a900473ffffffffffffffffffffffffffffffffffffffff1673ffffffffffffffffffffffffffffffffffffffff163373ffffffffffffffffffffffffffffffffffffffff1614612256576040517f08c379a000000000000000000000000000000000000000000000000000000000815260040161224d90614927565b60405180910390fd5b83838260030191826122699291906145fb565b5060405180604001604052803373ffffffffffffffffffffffffffffffffffffffff16815260200185858080601f016020809104026020016040519081016040528093929190818152602001838380828437600081840152601f19601f8201169050808301925050505050505081525082600701600087815260200190815260200160002060008201518160000160006101000a81548173ffffffffffffffffffffffffffffffffffffffff021916908373ffffffffffffffffffffffffffffffffffffffff160217905550602082015181600101908161234a9190614947565b5090505060028160040160006101000a81548160ff02191690836006811115612376576123756138e5565b5b02179055503373ffffffffffffffffffffffffffffffffffffffff1685877f380904a35de4f0af1fc624c50d5e175bc3d642a207ed882e3a7e1ec0606ac5d787876040516123c5929190614707565b60405180910390a484867f855d7f62719d90b6dffa5d0c4b7a917b0e8a2fe2521d54486fda68888305e2018360040160009054906101000a900460ff1660405161240f9190613d3f565b60405180910390a3505050505050565b60008054906101000a900473ffffffffffffffffffffffffffffffffffffffff1673ffffffffffffffffffffffffffffffffffffffff163373ffffffffffffffffffffffffffffffffffffffff16146124ad576040517f08c379a00000000000000000000000000000000000000000000000000000000081526004016124a490613bcc565b60405180910390fd5b60018054146124f1576040517f08c379a00000000000000000000000000000000000000000000000000000000081526004016124e890613f4d565b60405180910390fd5b600260018190555060006002600084815260200190815260200160002090508060000160009054906101000a900460ff16612561576040517f08c379a000000000000000000000000000000000000000000000000000000000815260040161255890613ca4565b60405180910390fd5b8060040160009054906101000a900460ff166125b2576040517f08c379a00000000000000000000000000000000000000000000000000000000081526004016125a990613fb9565b60405180910390fd5b60008160060160008481526020019081526020016000209050600360068111156125df576125de6138e5565b5b8160040160009054906101000a900460ff166006811115612603576126026138e5565b5b14612643576040517f08c379a000000000000000000000000000000000000000000000000000000000815260040161263a90614091565b60405180910390fd5b600081600001541161268a576040517f08c379a0000000000000000000000000000000000000000000000000000000008152600401612681906140fd565b60405180910390fd5b600073ffffffffffffffffffffffffffffffffffffffff168160010160009054906101000a900473ffffffffffffffffffffffffffffffffffffffff1673ffffffffffffffffffffffffffffffffffffffff160361271d576040517f08c379a000000000000000000000000000000000000000000000000000000000815260040161271490614169565b60405180910390fd5b60058160040160006101000a81548160ff02191690836006811115612745576127446138e5565b5b021790555061277c8160010160009054906101000a900473ffffffffffffffffffffffffffffffffffffffff168260000154612ee3565b80600001548260020160008282546127949190613e61565b925050819055508060010160009054906101000a900473ffffffffffffffffffffffffffffffffffffffff1673ffffffffffffffffffffffffffffffffffffffff1683857f9ba01c1cf20940d4ad9b32173c4bd46bf426aae91b6cb420123d2aa5e2b76c6f846000015460405161280b9190613882565b60405180910390a482847f855d7f62719d90b6dffa5d0c4b7a917b0e8a2fe2521d54486fda68888305e2018360040160009054906101000a900460ff166040516128559190613d3f565b60405180910390a35050600180819055505050565b60008054906101000a900473ffffffffffffffffffffffffffffffffffffffff1673ffffffffffffffffffffffffffffffffffffffff163373ffffffffffffffffffffffffffffffffffffffff16146128f8576040517f08c379a00000000000000000000000000000000000000000000000000000000081526004016128ef90613bcc565b60405180910390fd5b612901816106fb565b50565b60006002600084815260200190815260200160002060050160008373ffffffffffffffffffffffffffffffffffffffff1673ffffffffffffffffffffffffffffffffffffffff16815260200190815260200160002054905092915050565b60008054906101000a900473ffffffffffffffffffffffffffffffffffffffff1673ffffffffffffffffffffffffffffffffffffffff163373ffffffffffffffffffffffffffffffffffffffff16146129f0576040517f08c379a00000000000000000000000000000000000000000000000000000000081526004016129e790613bcc565b60405180910390fd5b6001805414612a34576040517f08c379a0000000000000000000000000000000000000000000000000000000008152600401612a2b90613f4d565b60405180910390fd5b6002600181905550612a4783838361319b565b60018081905550505050565b60008060008060006002600087815260200190815260200160002090508060010154816002015482600301548360040160009054906101000a900460ff169450945094509450509193509193565b60006002600083815260200190815260200160002060000160009054906101000a900460ff169050919050565b600060026000838152602001908152602001600020600101549050919050565b60008054906101000a900473ffffffffffffffffffffffffffffffffffffffff1673ffffffffffffffffffffffffffffffffffffffff163373ffffffffffffffffffffffffffffffffffffffff1614612b7c576040517f08c379a0000000000000000000000000000000000000000000000000000000008152600401612b7390613bcc565b60405180910390fd5b600073ffffffffffffffffffffffffffffffffffffffff168173ffffffffffffffffffffffffffffffffffffffff1603612beb576040517f08c379a0000000000000000000000000000000000000000000000000000000008152600401612be290614a65565b60405180910390fd5b806000806101000a81548173ffffffffffffffffffffffffffffffffffffffff021916908373ffffffffffffffffffffffffffffffffffffffff16021790555050565b60008054906101000a900473ffffffffffffffffffffffffffffffffffffffff1673ffffffffffffffffffffffffffffffffffffffff163373ffffffffffffffffffffffffffffffffffffffff1614612cbc576040517f08c379a0000000000000000000000000000000000000000000000000000000008152600401612cb390613bcc565b60405180910390fd5b60006002600084815260200190815260200160002090508060000160009054906101000a900460ff16612d24576040517f08c379a0000000000000000000000000000000000000000000000000000000008152600401612d1b90613ca4565b60405180910390fd5b6000816006016000848152602001908152602001600020905060026006811115612d5157612d506138e5565b5b8160040160009054906101000a900460ff166006811115612d7557612d746138e5565b5b14612db5576040517f08c379a0000000000000000000000000000000000000000000000000000000008152600401612dac906141d5565b60405180910390fd5b60038160040160006101000a81548160ff02191690836006811115612ddd57612ddc6138e5565b5b021790555082847f9ffbb52f2a1362273cd74689a516ca4f52c4282dc13e2e68b7e0646a9a7af7a333604051612e1391906138ac565b60405180910390a382847f855d7f62719d90b6dffa5d0c4b7a917b0e8a2fe2521d54486fda68888305e2018360040160009054906101000a900460ff16604051612e5d9190613d3f565b60405180910390a350505050565b6000808260080180549050905060005b81811015612edc57836006016000856008018381548110612e9f57612e9e614a85565b5b906000526020600020015481526020019081526020016000206000015483612ec79190613e61565b92508080612ed490614ab4565b915050612e7b565b5050919050565b80471015612f26576040517f08c379a0000000000000000000000000000000000000000000000000000000008152600401612f1d90614b48565b60405180910390fd5b60008273ffffffffffffffffffffffffffffffffffffffff1682604051612f4c90614b99565b60006040518083038185875af1925050503d8060008114612f89576040519150601f19603f3d011682016040523d82523d6000602084013e612f8e565b606091505b5050905080612fd2576040517f08c379a0000000000000000000000000000000000000000000000000000000008152600401612fc990614bfa565b60405180910390fd5b505050565b6000811161301a576040517f08c379a000000000000000000000000000000000000000000000000000000000815260040161301190614c66565b60405180910390fd5b60006002600084815260200190815260200160002090508060000160009054906101000a900460ff16613082576040517f08c379a000000000000000000000000000000000000000000000000000000000815260040161307990613ca4565b60405180910390fd5b8060040160009054906101000a900460ff16156130d4576040517f08c379a00000000000000000000000000000000000000000000000000000000081526004016130cb90614319565b60405180910390fd5b818160010160008282546130e89190613e61565b92505081905550818160050160003373ffffffffffffffffffffffffffffffffffffffff1673ffffffffffffffffffffffffffffffffffffffff16815260200190815260200160002060008282546131409190613e61565b925050819055503373ffffffffffffffffffffffffffffffffffffffff16837fe030e47e27825a2ad1b19e4cf2e70bfbfb3124af275c7727a82b114ba7b29a858460405161318e9190613882565b60405180910390a3505050565b60006002600085815260200190815260200160002090508060000160009054906101000a900460ff16613203576040517f08c379a00000000000000000000000000000000000000000000000000000000081526004016131fa90613ca4565b60405180910390fd5b60008160060160008581526020019081526020016000209050600460068111156132305761322f6138e5565b5b8160040160009054906101000a900460ff166006811115613254576132536138e5565b5b14613294576040517f08c379a000000000000000000000000000000000000000000000000000000000815260040161328b90614cd2565b60405180910390fd5b60008160000154116132db576040517f08c379a00000000000000000000000000000000000000000000000000000000081526004016132d2906140fd565b60405180910390fd5b60068160040160006101000a81548160ff02191690836006811115613303576133026138e5565b5b0217905550613316838260000154612ee3565b806000015482600301600082825461332e9190613e61565b925050819055508273ffffffffffffffffffffffffffffffffffffffff1684867f2ed91a76e9f5e527a4f6a25b562325d498c5f3a02cbd263c1abf33c8fb6bce7784600001546040516133819190613882565b60405180910390a483857f855d7f62719d90b6dffa5d0c4b7a917b0e8a2fe2521d54486fda68888305e2018360040160009054906101000a900460ff166040516133cb9190613d3f565b60405180910390a35050505050565b6040518060400160405280600073ffffffffffffffffffffffffffffffffffffffff168152602001606081525090565b6040518060a0016040528060008152602001600073ffffffffffffffffffffffffffffffffffffffff16815260200160608152602001606081526020016000600681111561345b5761345a6138e5565b5b81525090565b600080fd5b600080fd5b6000819050919050565b61347e8161346b565b811461348957600080fd5b50565b60008135905061349b81613475565b92915050565b600080604083850312156134b8576134b7613461565b5b60006134c68582860161348c565b92505060206134d78582860161348c565b9150509250929050565b600073ffffffffffffffffffffffffffffffffffffffff82169050919050565b600061350c826134e1565b9050919050565b61351c81613501565b82525050565b600081519050919050565b600082825260208201905092915050565b60005b8381101561355c578082015181840152602081019050613541565b60008484015250505050565b6000601f19601f8301169050919050565b600061358482613522565b61358e818561352d565b935061359e81856020860161353e565b6135a781613568565b840191505092915050565b60006040830160008301516135ca6000860182613513565b50602083015184820360208601526135e28282613579565b9150508091505092915050565b6000602082019050818103600083015261360981846135b2565b905092915050565b60006020828403121561362757613626613461565b5b60006136358482850161348c565b91505092915050565b6007811061364b57600080fd5b50565b60008135905061365d8161363e565b92915050565b60008060006060848603121561367c5761367b613461565b5b600061368a8682870161348c565b935050602061369b8682870161348c565b92505060406136ac8682870161364e565b9150509250925092565b6000806000606084860312156136cf576136ce613461565b5b60006136dd8682870161348c565b93505060206136ee8682870161348c565b92505060406136ff8682870161348c565b9150509250925092565b6000613714826134e1565b9050919050565b61372481613709565b811461372f57600080fd5b50565b6000813590506137418161371b565b92915050565b6000806000606084860312156137605761375f613461565b5b600061376e8682870161348c565b935050602061377f8682870161348c565b925050604061379086828701613732565b9150509250925092565b600080fd5b600080fd5b600080fd5b60008083601f8401126137bf576137be61379a565b5b8235905067ffffffffffffffff8111156137dc576137db61379f565b5b6020830191508360018202830111156137f8576137f76137a4565b5b9250929050565b6000806000806060858703121561381957613818613461565b5b60006138278782880161348c565b94505060206138388782880161348c565b935050604085013567ffffffffffffffff81111561385957613858613466565b5b613865878288016137a9565b925092505092959194509250565b61387c8161346b565b82525050565b60006020820190506138976000830184613873565b92915050565b6138a681613501565b82525050565b60006020820190506138c1600083018461389d565b92915050565b6138d08161346b565b82525050565b6138df81613709565b82525050565b7f4e487b7100000000000000000000000000000000000000000000000000000000600052602160045260246000fd5b60078110613925576139246138e5565b5b50565b600081905061393682613914565b919050565b600061394682613928565b9050919050565b6139568161393b565b82525050565b600060a08301600083015161397460008601826138c7565b50602083015161398760208601826138d6565b506040830151848203604086015261399f8282613579565b915050606083015184820360608601526139b98282613579565b91505060808301516139ce608086018261394d565b508091505092915050565b600060208201905081810360008301526139f3818461395c565b905092915050565b613a0481613501565b8114613a0f57600080fd5b50565b600081359050613a21816139fb565b92915050565b60008060408385031215613a3e57613a3d613461565b5b6000613a4c8582860161348c565b9250506020613a5d85828601613a12565b9150509250929050565b60008115159050919050565b613a7c81613a67565b82525050565b6000608082019050613a976000830187613873565b613aa46020830186613873565b613ab16040830185613873565b613abe6060830184613a73565b95945050505050565b6000602082019050613adc6000830184613a73565b92915050565b600060208284031215613af857613af7613461565b5b6000613b0684828501613a12565b91505092915050565b7f4e487b7100000000000000000000000000000000000000000000000000000000600052602260045260246000fd5b60006002820490506001821680613b5657607f821691505b602082108103613b6957613b68613b0f565b5b50919050565b600082825260208201905092915050565b7f6e6f74206f776e65720000000000000000000000000000000000000000000000600082015250565b6000613bb6600983613b6f565b9150613bc182613b80565b602082019050919050565b60006020820190508181036000830152613be581613ba9565b9050919050565b7f736368656d652065786973747300000000000000000000000000000000000000600082015250565b6000613c22600d83613b6f565b9150613c2d82613bec565b602082019050919050565b60006020820190508181036000830152613c5181613c15565b9050919050565b7f736368656d65206d697373696e67000000000000000000000000000000000000600082015250565b6000613c8e600e83613b6f565b9150613c9982613c58565b602082019050919050565b60006020820190508181036000830152613cbd81613c81565b9050919050565b7f6d697373696e6700000000000000000000000000000000000000000000000000600082015250565b6000613cfa600783613b6f565b9150613d0582613cc4565b602082019050919050565b60006020820190508181036000830152613d2981613ced565b9050919050565b613d398161393b565b82525050565b6000602082019050613d546000830184613d30565b92915050565b7f616c726561647920657869737473000000000000000000000000000000000000600082015250565b6000613d90600e83613b6f565b9150613d9b82613d5a565b602082019050919050565b60006020820190508181036000830152613dbf81613d83565b9050919050565b7f7a65726f20616d6f756e74000000000000000000000000000000000000000000600082015250565b6000613dfc600b83613b6f565b9150613e0782613dc6565b602082019050919050565b60006020820190508181036000830152613e2b81613def565b9050919050565b7f4e487b7100000000000000000000000000000000000000000000000000000000600052601160045260246000fd5b6000613e6c8261346b565b9150613e778361346b565b9250828201905080821115613e8f57613e8e613e32565b5b92915050565b7f6d696c6573746f6e6573206578636565642066756e6473000000000000000000600082015250565b6000613ecb601783613b6f565b9150613ed682613e95565b602082019050919050565b60006020820190508181036000830152613efa81613ebe565b9050919050565b7f7265656e7472616e637900000000000000000000000000000000000000000000600082015250565b6000613f37600a83613b6f565b9150613f4282613f01565b602082019050919050565b60006020820190508181036000830152613f6681613f2a565b9050919050565b7f6e6f74206c6f636b656400000000000000000000000000000000000000000000600082015250565b6000613fa3600a83613b6f565b9150613fae82613f6d565b602082019050919050565b60006020820190508181036000830152613fd281613f96565b9050919050565b7f76656e646f72206d69736d617463680000000000000000000000000000000000600082015250565b600061400f600f83613b6f565b915061401a82613fd9565b602082019050919050565b6000602082019050818103600083015261403e81614002565b9050919050565b7f6e6f7420617070726f7665640000000000000000000000000000000000000000600082015250565b600061407b600c83613b6f565b915061408682614045565b602082019050919050565b600060208201905081810360008301526140aa8161406e565b9050919050565b7f6e6f20616d6f756e740000000000000000000000000000000000000000000000600082015250565b60006140e7600983613b6f565b91506140f2826140b1565b602082019050919050565b60006020820190508181036000830152614116816140da565b9050919050565b7f6e6f2076656e646f720000000000000000000000000000000000000000000000600082015250565b6000614153600983613b6f565b915061415e8261411d565b602082019050919050565b6000602082019050818103600083015261418281614146565b9050919050565b7f77726f6e67207374617475730000000000000000000000000000000000000000600082015250565b60006141bf600c83613b6f565b91506141ca82614189565b602082019050919050565b600060208201905081810360008301526141ee816141b2565b9050919050565b7f616d6f756e74206d69736d617463680000000000000000000000000000000000600082015250565b600061422b600f83613b6f565b9150614236826141f5565b602082019050919050565b6000602082019050818103600083015261425a8161421e565b9050919050565b7f76656e646f72207a65726f000000000000000000000000000000000000000000600082015250565b6000614297600b83613b6f565b91506142a282614261565b602082019050919050565b600060208201905081810360008301526142c68161428a565b9050919050565b7f6c6f636b65640000000000000000000000000000000000000000000000000000600082015250565b6000614303600683613b6f565b915061430e826142cd565b602082019050919050565b60006020820190508181036000830152614332816142f6565b9050919050565b6000819050919050565b600061435e614359614354846134e1565b614339565b6134e1565b9050919050565b600061437082614343565b9050919050565b600061438282614365565b9050919050565b61439281614377565b82525050565b60006020820190506143ad6000830184614389565b92915050565b7f6d696c6573746f6e65206d697373696e67000000000000000000000000000000600082015250565b60006143e9601183613b6f565b91506143f4826143b3565b602082019050919050565b60006020820190508181036000830152614418816143dc565b9050919050565b600082905092915050565b7f4e487b7100000000000000000000000000000000000000000000000000000000600052604160045260246000fd5b60008190508160005260206000209050919050565b60006020601f8301049050919050565b600082821b905092915050565b6000600883026144bb7fffffffffffffffffffffffffffffffffffffffffffffffffffffffffffffffff8261447e565b6144c5868361447e565b95508019841693508086168417925050509392505050565b60006144f86144f36144ee8461346b565b614339565b61346b565b9050919050565b6000819050919050565b614512836144dd565b61452661451e826144ff565b84845461448b565b825550505050565b600090565b61453b61452e565b614546818484614509565b505050565b5b8181101561456a5761455f600082614533565b60018101905061454c565b5050565b601f8211156145af5761458081614459565b6145898461446e565b81016020851015614598578190505b6145ac6145a48561446e565b83018261454b565b50505b505050565b600082821c905092915050565b60006145d2600019846008026145b4565b1980831691505092915050565b60006145eb83836145c1565b9150826002028217905092915050565b614605838361441f565b67ffffffffffffffff81111561461e5761461d61442a565b5b6146288254613b3e565b61463382828561456e565b6000601f8311600181146146625760008415614650578287013590505b61465a85826145df565b8655506146c2565b601f19841661467086614459565b60005b8281101561469857848901358255600182019150602085019450602081019050614673565b868310156146b557848901356146b1601f8916826145c1565b8355505b6001600288020188555050505b50505050505050565b82818337600083830152505050565b60006146e68385613b6f565b93506146f38385846146cb565b6146fc83613568565b840190509392505050565b600060208201905081810360008301526147228184866146da565b90509392505050565b7f616c7265616479206c6f636b6564000000000000000000000000000000000000600082015250565b6000614761600e83613b6f565b915061476c8261472b565b602082019050919050565b6000602082019050818103600083015261479081614754565b9050919050565b7f6e6f2066756e6473000000000000000000000000000000000000000000000000600082015250565b60006147cd600883613b6f565b91506147d882614797565b602082019050919050565b600060208201905081810360008301526147fc816147c0565b9050919050565b7f63616e6e6f74207375626d697400000000000000000000000000000000000000600082015250565b6000614839600d83613b6f565b915061484482614803565b602082019050919050565b600060208201905081810360008301526148688161482c565b9050919050565b7f76656e646f72206e6f7420736574000000000000000000000000000000000000600082015250565b60006148a5600e83613b6f565b91506148b08261486f565b602082019050919050565b600060208201905081810360008301526148d481614898565b9050919050565b7f6e6f742076656e646f7200000000000000000000000000000000000000000000600082015250565b6000614911600a83613b6f565b915061491c826148db565b602082019050919050565b6000602082019050818103600083015261494081614904565b9050919050565b61495082613522565b67ffffffffffffffff8111156149695761496861442a565b5b6149738254613b3e565b61497e82828561456e565b600060209050601f8311600181146149b1576000841561499f578287015190505b6149a985826145df565b865550614a11565b601f1984166149bf86614459565b60005b828110156149e7578489015182556001820191506020850194506020810190506149c2565b86831015614a045784890151614a00601f8916826145c1565b8355505b6001600288020188555050505b505050505050565b7f7a65726f206f776e657200000000000000000000000000000000000000000000600082015250565b6000614a4f600a83613b6f565b9150614a5a82614a19565b602082019050919050565b60006020820190508181036000830152614a7e81614a42565b9050919050565b7f4e487b7100000000000000000000000000000000000000000000000000000000600052603260045260246000fd5b6000614abf8261346b565b91507fffffffffffffffffffffffffffffffffffffffffffffffffffffffffffffffff8203614af157614af0613e32565b5b600182019050919050565b7f696e73756666696369656e742066756e64730000000000000000000000000000600082015250565b6000614b32601283613b6f565b9150614b3d82614afc565b602082019050919050565b60006020820190508181036000830152614b6181614b25565b9050919050565b600081905092915050565b50565b6000614b83600083614b68565b9150614b8e82614b73565b600082019050919050565b6000614ba482614b76565b9150819050919050565b7f7472616e73666572206661696c65640000000000000000000000000000000000600082015250565b6000614be4600f83613b6f565b9150614bef82614bae565b602082019050919050565b60006020820190508181036000830152614c1381614bd7565b9050919050565b7f6e6f2076616c7565000000000000000000000000000000000000000000000000600082015250565b6000614c50600883613b6f565b9150614c5b82614c1a565b602082019050919050565b60006020820190508181036000830152614c7f81614c43565b9050919050565b7f6e6f742072656a65637465640000000000000000000000000000000000000000600082015250565b6000614cbc600c83613b6f565b9150614cc782614c86565b602082019050919050565b60006020820190508181036000830152614ceb81614caf565b905091905056fea26469706673582212200bd3efd5bec7de04a5be56e42cbdbb9ea4b03d36168216e1d6a40cbcb5d4fb2364736f6c63430008140033",
  "linkReferences": {},
  "deployedLinkReferences": {}
}