{
  "_format": "hh-sol-artifact-1",
  "contractName": "TrustChainEscrow",
  "sourceName": "contracts/TrustEscrow.sol",
  "abi": [
    {
      "inputs": [],
      "stateMutability": "nonpayable",
      "type": "constructor"
    },
    {
      "anonymous": false,
      "inputs": [
        {
          "indexed": true,
          "internalType": "uint256",
          "name": "schemeId",
          "type": "uint256"
        },
        {
          "indexed": true,
          "internalType": "address",
          "name": "from",
          "type": "address"
        },
        {
          "indexed": false,
          "internalType": "uint256",
          "name": "amount",
          "type": "uint256"
        }
      ],
      "name": "FundsDeposited",
      "type": "event"
    },
    {
      "anonymous": false,
      "inputs": [
        {
          "indexed": true,
          "internalType": "uint256",
          "name": "schemeId",
          "type": "uint256"
        },
        {
          "indexed": false,
          "internalType": "uint256",
          "name": "lockedAmount",
          "type": "uint256"
        }
      ],
      "name": "FundsLocked",
      "type": "event"
    },
    {
      "anonymous": false,
      "inputs": [
        {
          "indexed": true,
          "internalType": "bytes32",
          "name": "invoiceId",
          "type": "bytes32"
        },
        {
          "indexed": true,
          "internalType": "address",
          "name": "by",
          "type": "address"
        },
        {
          "indexed": false,
          "internalType": "string",
          "name": "ipfsHash",
          "type": "string"
        }
      ],
      "name": "InvoiceHashStored",
      "type": "event"
    },
    {
      "anonymous": false,
      "inputs": [
        {
          "indexed": true,
          "internalType": "uint256",
          "name": "schemeId",
          "type": "uint256"
        },
        {
          "indexed": true,
          "internalType": "uint256",
          "name": "milestoneId",
          "type": "uint256"
        },
        {
          "indexed": false,
          "internalType": "address",
          "name": "approver",
          "type": "address"
        }
      ],
      "name": "MilestoneApproved",
      "type": "event"
    },
    {
      "anonymous": false,
      "inputs": [
        {
          "indexed": true,
          "internalType": "uint256",
          "name": "schemeId",
          "type": "uint256"
        },
        {
          "indexed": true,
          "internalType": "uint256",
          "name": "milestoneId",
          "type": "uint256"
        },
        {
          "indexed": false,
          "internalType": "uint256",
          "name": "amount",
          "type": "uint256"
        }
      ],
      "name": "MilestoneCreated",
      "type": "event"
    },
    {
      "anonymous": false,
      "inputs": [
        {
          "indexed": true,
          "internalType": "uint256",
          "name": "schemeId",
          "type": "uint256"
        },
        {
          "indexed": true,
          "internalType": "uint256",
          "name": "milestoneId",
          "type": "uint256"
        },
        {
          "indexed": false,
          "internalType": "address",
          "name": "approver",
          "type": "address"
        }
      ],
      "name": "MilestoneRejected",
      "type": "event"
    },
    {
      "anonymous": false,
      "inputs": [
        {
          "indexed": true,
          "internalType": "uint256",
          "name": "schemeId",
          "type": "uint256"
        },
        {
          "indexed": true,
          "internalType": "uint256",
          "name": "milestoneId",
          "type": "uint256"
        },
        {
          "indexed": false,
          "internalType": "enum TrustChainEscrow.MilestoneStatus",
          "name": "status",
          "type": "uint8"
        }
      ],
      "name": "MilestoneStatusUpdated",
      "type": "event"
    },
    {
      "anonymous": false,
      "inputs": [
        {
          "indexed": true,
          "internalType": "uint256",
          "name": "schemeId",
          "type": "uint256"
        },
        {
          "indexed": true,
          "internalType": "uint256",
          "name": "milestoneId",
          "type": "uint256"
        },
        {
          "indexed": true,
          "internalType": "address",
          "name": "vendor",
          "type": "address"
        },
        {
          "indexed": false,
          "internalType": "uint256",
          "name": "amount",
          "type": "uint256"
        }
      ],
      "name": "PaymentReleased",
      "type": "event"
    },
    {
      "anonymous": false,
      "inputs": [
        {
          "indexed": true,
          "internalType": "uint256",
          "name": "schemeId",
          "type": "uint256"
        },
        {
          "indexed": true,
          "internalType": "uint256",
          "name": "milestoneId",
          "type": "uint256"
        },
        {
          "indexed": true,
          "internalType": "address",
          "name": "vendor",
          "type": "address"
        },
        {
          "indexed": false,
          "internalType": "string",
          "name": "ipfsHash",
          "type": "string"
        }
      ],
      "name": "ProofSubmitted",
      "type": "event"
    },
    {
      "anonymous": false,
      "inputs": [
        {
          "indexed": true,
          "internalType": "uint256",
          "name": "schemeId",
          "type": "uint256"
        },
        {
          "indexed": true,
          "internalType": "uint256",
          "name": "milestoneId",
          "type": "uint256"
        },
        {
          "indexed": false,
          "internalType": "string",
          "name": "ipfsHash",
          "type": "string"
        }
      ],
      "name": "QuotationStored",
      "type": "event"
    },
    {
      "anonymous": false,
      "inputs": [
        {
          "indexed": true,
          "internalType": "uint256",
          "name": "schemeId",
          "type": "uint256"
        },
        {
          "indexed": true,
          "internalType": "uint256",
          "name": "milestoneId",
          "type": "uint256"
        },
        {
          "indexed": true,
          "internalType": "address",
          "name": "to",
          "type": "address"
        },
        {
          "indexed": false,
          "internalType": "uint256",
          "name": "amount",
          "type": "uint256"
        }
      ],
      "name": "RefundIssued",
      "type": "event"
    },
    {
      "anonymous": false,
      "inputs": [
        {
          "indexed": true,
          "internalType": "uint256",
          "name": "schemeId",
          "type": "uint256"
        },
        {
          "indexed": true,
          "internalType": "address",
          "name": "by",
          "type": "address"
        }
      ],
      "name": "SchemeCreated",
      "type": "event"
    },
    {
      "anonymous": false,
      "inputs": [
        {
          "indexed": true,
          "internalType": "uint256",
          "name": "schemeId",
          "type": "uint256"
        },
        {
          "indexed": true,
          "internalType": "uint256",
          "name": "milestoneId",
          "type": "uint256"
        },
        {
          "indexed": false,
          "internalType": "address",
          "name": "vendor",
          "type": "address"
        }
      ],
      "name": "VendorSet",
      "type": "event"
    },
    {
      "inputs": [
        {
          "internalType": "uint256",
          "name": "schemeId",
          "type": "uint256"
        },
        {
          "internalType": "uint256",
          "name": "milestoneId",
          "type": "uint256"
        }
      ],
      "name": "approveProof",
      "outputs": [],
      "stateMutability": "nonpayable",
      "type": "function"
    },
    {
      "inputs": [
        {
          "internalType": "uint256",
          "name": "schemeId",
          "type": "uint256"
        },
        {
          "internalType": "uint256",
          "name": "milestoneId",
          "type": "uint256"
        },
        {
          "internalType": "uint256",
          "name": "amount",
          "type": "uint256"
        }
      ],
      "name": "createMilestone",
      "outputs": [],
      "stateMutability": "nonpayable",
      "type": "function"
    },
    {
      "inputs": [
        {
          "internalType": "uint256",
          "name": "projectId",
          "type": "uint256"
        }
      ],
      "name": "createProject",
      "outputs": [],
      "stateMutability": "nonpayable",
      "type": "function"
    },
    {
      "inputs": [
        {
          "internalType": "uint256",
          "name": "schemeId",
          "type": "uint256"
        }
      ],
      "name": "createScheme",
      "outputs": [],
      "stateMutability": "nonpayable",
      "type": "function"
    },
    {
      "inputs": [
        {
          "internalType": "uint256",
          "name": "schemeId",
          "type": "uint256"
        }
      ],
      "name": "depositFunds",
      "outputs": [],
      "stateMutability": "payable",
      "type": "function"
    },
    {
      "inputs": [
        {
          "internalType": "uint256",
          "name": "schemeId",
          "type": "uint256"
        },
        {
          "internalType": "uint256",
          "name": "amount",
          "type": "uint256"
        }
      ],
      "name": "depositFunds",
      "outputs": [],
      "stateMutability": "payable",
      "type": "function"
    },
    {
      "inputs": [
        {
          "internalType": "uint256",
          "name": "schemeId",
          "type": "uint256"
        },
        {
          "internalType": "address",
          "name": "donor",
          "type": "address"
        }
      ],
      "name": "getDonorContribution",
      "outputs": [
        {
          "internalType": "uint256",
          "name": "",
          "type": "uint256"
        }
      ],
      "stateMutability": "view",
      "type": "function"
    },
    {
      "inputs": [],
      "name": "getEscrowNativeBalance",
      "outputs": [
        {
          "internalType": "uint256",
          "name": "",
          "type": "uint256"
        }
      ],
      "stateMutability": "view",
      "type": "function"
    },
    {
      "inputs": [
        {
          "internalType": "bytes32",
          "name": "invoiceId",
          "type": "bytes32"
        }
      ],
      "name": "getInvoiceHash",
      "outputs": [
        {
          "internalType": "string",
          "name": "",
          "type": "string"
        }
      ],
      "stateMutability": "view",
      "type": "function"
    },
    {
      "inputs": [
        {
          "internalType": "uint256",
          "name": "schemeId",
          "type": "uint256"
        },
        {
          "internalType": "uint256",
          "name": "milestoneId",
          "type": "uint256"
        }
      ],
      "name": "getMilestone",
      "outputs": [
        {
          "components": [
            {
              "internalType": "uint256",
              "name": "amount",
              "type": "uint256"
            },
            {
              "internalType": "address payable",
              "name": "vendor",
              "type": "address"
            },
            {
              "internalType": "string",
              "name": "quotationHash",
              "type": "string"
            },
            {
              "internalType": "string",
              "name": "proofHash",
              "type": "string"
            },
            {
              "internalType": "enum TrustChainEscrow.MilestoneStatus",
              "name": "status",
              "type": "uint8"
            }
          ],
          "internalType": "struct TrustChainEscrow.Milestone",
          "name": "",
          "type": "tuple"
        }
      ],
      "stateMutability": "view",
      "type": "function"
    },
    {
      "inputs": [
        {
          "internalType": "uint256",
          "name": "schemeId",
          "type": "uint256"
        },
        {
          "internalType": "uint256",
          "name": "milestoneId",
          "type": "uint256"
        }
      ],
      "name": "getProof",
      "outputs": [
        {
          "components": [
            {
              "internalType": "address",
              "name": "vendor",
              "type": "address"
            },
            {
              "internalType": "string",
              "name": "ipfsHash",
              "type": "string"
            }
          ],
          "internalType": "struct TrustChainEscrow.ProofRecord",
          "name": "",
          "type": "tuple"
        }
      ],
      "stateMutability": "view",
      "type": "function"
    },
    {
      "inputs": [
        {
          "internalType": "uint256",
          "name": "schemeId",
          "type": "uint256"
        }
      ],
      "name": "getSchemeBalance",
      "outputs": [
        {
          "internalType": "uint256",
          "name": "",
          "type": "uint256"
        }
      ],
      "stateMutability": "view",
      "type": "function"
    },
    {
      "inputs": [
        {
          "internalType": "uint256",
          "name": "schemeId",
          "type": "uint256"
        }
      ],
      "name": "getSchemeStats",
      "outputs": [
        {
          "internalType": "uint256",
          "name": "totalDeposited",
          "type": "uint256"
        },
        {
          "internalType": "uint256",
          "name": "totalReleased",
          "type": "uint256"
        },
        {
          "internalType": "uint256",
          "name": "totalRefunded",
          "type": "uint256"
        },
        {
          "internalType": "bool",
          "name": "locked",
          "type": "bool"
        }
      ],
      "stateMutability": "view",
      "type": "function"
    },
    {
      "inputs": [
        {
          "internalType": "uint256",
          "name": "schemeId",
          "type": "uint256"
        }
      ],
      "name": "lockFunds",
      "outputs": [],
      "stateMutability": "nonpayable",
      "type": "function"
    },
    {
      "inputs": [],
      "name": "owner",
      "outputs": [
        {
          "internalType": "address",
          "name": "",
          "type": "address"
        }
      ],
      "stateMutability": "view",
      "type": "function"
    },
    {
      "inputs": [
        {
          "internalType": "uint256",
          "name": "schemeId",
          "type": "uint256"
        },
        {
          "internalType": "uint256",
          "name": "milestoneId",
          "type": "uint256"
        }
      ],
      "name": "refundIfRejected",
      "outputs": [],
      "stateMutability": "nonpayable",
      "type": "function"
    },
    {
      "inputs": [
        {
          "internalType": "uint256",
          "name": "schemeId",
          "type": "uint256"
        },
        {
          "internalType": "uint256",
          "name": "milestoneId",
          "type": "uint256"
        },
        {
          "internalType": "address payable",
          "name": "to",
          "type": "address"
        }
      ],
      "name": "refundIfRejected",
      "outputs": [],
      "stateMutability": "nonpayable",
      "type": "function"
    },
    {
      "inputs": [
        {
          "internalType": "uint256",
          "name": "schemeId",
          "type": "uint256"
        },
        {
          "internalType": "uint256",
          "name": "milestoneId",
          "type": "uint256"
        }
      ],
      "name": "rejectProof",
      "outputs": [],
      "stateMutability": "nonpayable",
      "type": "function"
    },
    {
      "inputs": [
        {
          "internalType": "uint256",
          "name": "schemeId",
          "type": "uint256"
        },
        {
          "internalType": "uint256",
          "name": "milestoneId",
          "type": "uint256"
        },
        {
          "internalType": "address payable",
          "name": "vendorWallet",
          "type": "address"
        }
      ],
      "name": "releasePayment",
      "outputs": [],
      "stateMutability": "nonpayable",
      "type": "function"
    },
    {
      "inputs": [
        {
          "internalType": "uint256",
          "name": "schemeId",
          "type": "uint256"
        },
        {
          "internalType": "uint256",
          "name": "milestoneId",
          "type": "uint256"
        }
      ],
      "name": "releasePayment",
      "outputs": [],
      "stateMutability": "nonpayable",
      "type": "function"
    },
    {
      "inputs": [
        {
          "internalType": "uint256",
          "name": "schemeId",
          "type": "uint256"
        }
      ],
      "name": "schemeExists",
      "outputs": [
        {
          "internalType": "bool",
          "name": "",
          "type": "bool"
        }
      ],
      "stateMutability": "view",
      "type": "function"
    },
    {
      "inputs": [
        {
          "internalType": "uint256",
          "name": "schemeId",
          "type": "uint256"
        },
        {
          "internalType": "uint256",
          "name": "milestoneId",
          "type": "uint256"
        },
        {
          "internalType": "address payable",
          "name": "vendor",
          "type": "address"
        }
      ],
      "name": "setVendorForMilestone",
      "outputs": [],
      "stateMutability": "nonpayable",
      "type": "function"
    },
    {
      "inputs": [
        {
          "internalType": "bytes32",
          "name": "invoiceId",
          "type": "bytes32"
        },
        {
          "internalType": "string",
          "name": "ipfsHash",
          "type": "string"
        }
      ],
      "name": "storeInvoiceHash",
      "outputs": [],
      "stateMutability": "nonpayable",
      "type": "function"
    },
    {
      "inputs": [
        {
          "internalType": "uint256",
          "name": "schemeId",
          "type": "uint256"
        },
        {
          "internalType": "uint256",
          "name": "milestoneId",
          "type": "uint256"
        },
        {
          "internalType": "string",
          "name": "ipfsHash",
          "type": "string"
        }
      ],
      "name": "storeQuotationHash",
      "outputs": [],
      "stateMutability": "nonpayable",
      "type": "function"
    },
    {
      "inputs": [
        {
          "internalType": "uint256",
          "name": "schemeId",
          "type": "uint256"
        },
        {
          "internalType": "uint256",
          "name": "milestoneId",
          "type": "uint256"
        },
        {
          "internalType": "string",
          "name": "ipfsHash",
          "type": "string"
        }
      ],
      "name": "submitProof",
      "outputs": [],
      "stateMutability": "nonpayable",
      "type": "function"
    },
    {
      "inputs": [
        {
          "internalType": "address",
          "name": "newOwner",
          "type": "address"
        }
      ],
      "name": "transferOwnership",
      "outputs": [],
      "stateMutability": "nonpayable",
      "type": "function"
    },
    {
      "inputs": [
        {
          "internalType": "uint256",
          "name": "schemeId",
          "type": "uint256"
        },
        {
          "internalType": "uint256",
          "name": "milestoneId",
          "type": "uint256"
        },
        {
          "internalType": "enum TrustChainEscrow.MilestoneStatus",
          "name": "newStatus",
          "type": "uint8"
        }
      ],
      "name": "updateMilestoneStatus",
      "outputs": [],
      "stateMutability": "nonpayable",
      "type": "function"
    }
  ],
  "bytecode": "0x60806040526001805534801561001457600080fd5b50336000806101000a81548173ffffffffffffffffffffffffffffffffffffffff021916908373ffffffffffffffffffffffffffffffffffffffff1602179055506151f1806100646000396000f3fe60806040526004361061019c5760003560e01c80638c8f95fb116100ec578063b3493d6a1161008a578063e9437e4611610064578063e9437e46146105a1578063f2fde38b146105de578063f31b37b214610607578063f8379c73146106445761019c565b8063b3493d6a146104fb578063c2a5a2e614610524578063dbf0d39c146105645761019c565b806395f01e58116100c657806395f01e581461044357806397e99a801461046c578063992034d714610495578063a1be44e0146104be5761019c565b80638c8f95fb146103b25780638da5cb5b146103db5780638ed9895c146104065761019c565b8063450d76651161015957806362d6aac01161013357806362d6aac01461030c57806382148fc51461033557806383d8813a1461035e5780638bb36cd6146103875761019c565b8063450d76651461029e5780635cddafbe146102c757806361638ed5146102f05761019c565b806308f62313146101a157806309e60ec6146101de5780631c634a351461020757806325de5efc1461023057806335a0e5b9146102595780633b76594d14610282575b600080fd5b3480156101ad57600080fd5b506101c860048036038101906101c39190613774565b61066d565b6040516101d591906138c2565b60405180910390f35b3480156101ea57600080fd5b50610205600480360381019061020091906138e4565b610797565b005b34801561021357600080fd5b5061022e60048036038101906102299190613936565b6108f3565b005b34801561023c57600080fd5b5061025760048036038101906102529190613989565b610ae6565b005b34801561026557600080fd5b50610280600480360381019061027b9190613a1a565b610e13565b005b61029c600480360381019061029791906138e4565b6112f1565b005b3480156102aa57600080fd5b506102c560048036038101906102c09190613774565b6112fe565b005b3480156102d357600080fd5b506102ee60048036038101906102e99190613b08565b61157b565b005b61030a60048036038101906103059190613774565b61170d565b005b34801561031857600080fd5b50610333600480360381019061032e9190613a1a565b61175d565b005b34801561034157600080fd5b5061035c60048036038101906103579190613b68565b611aca565b005b34801561036a57600080fd5b5061038560048036038101906103809190613774565b611ca8565b005b34801561039357600080fd5b5061039c611db8565b6040516103a99190613beb565b60405180910390f35b3480156103be57600080fd5b506103d960048036038101906103d491906138e4565b611dc0565b005b3480156103e757600080fd5b506103f0612001565b6040516103fd9190613c15565b60405180910390f35b34801561041257600080fd5b5061042d60048036038101906104289190613774565b612025565b60405161043a9190613d42565b60405180910390f35b34801561044f57600080fd5b5061046a60048036038101906104659190613b68565b612226565b005b34801561047857600080fd5b50610493600480360381019061048e9190613774565b61264d565b005b3480156104a157600080fd5b506104bc60048036038101906104b791906138e4565b612a98565b005b3480156104ca57600080fd5b506104e560048036038101906104e09190613d90565b612b32565b6040516104f29190613beb565b60405180910390f35b34801561050757600080fd5b50610522600480360381019061051d9190613a1a565b612b90565b005b34801561053057600080fd5b5061054b600480360381019061054691906138e4565b612c81565b60405161055b9493929190613deb565b60405180910390f35b34801561057057600080fd5b5061058b600480360381019061058691906138e4565b612ccf565b6040516105989190613e30565b60405180910390f35b3480156105ad57600080fd5b506105c860048036038101906105c391906138e4565b612cfc565b6040516105d59190613beb565b60405180910390f35b3480156105ea57600080fd5b5061060560048036038101906106009190613e4b565b612d1c565b005b34801561061357600080fd5b5061062e60048036038101906106299190613e78565b612e5c565b60405161063b9190613eef565b60405180910390f35b34801561065057600080fd5b5061066b60048036038101906106669190613774565b612f01565b005b6106756136ad565b6002600084815260200190815260200160002060070160008381526020019081526020016000206040518060400160405290816000820160009054906101000a900473ffffffffffffffffffffffffffffffffffffffff1673ffffffffffffffffffffffffffffffffffffffff1673ffffffffffffffffffffffffffffffffffffffff16815260200160018201805461070d90613f40565b80601f016020809104026020016040519081016040528092919081815260200182805461073990613f40565b80156107865780601f1061075b57610100808354040283529160200191610786565b820191906000526020600020905b81548152906001019060200180831161076957829003601f168201915b505050505081525050905092915050565b60008054906101000a900473ffffffffffffffffffffffffffffffffffffffff1673ffffffffffffffffffffffffffffffffffffffff163373ffffffffffffffffffffffffffffffffffffffff1614610825576040517f08c379a000000000000000000000000000000000000000000000000000000000815260040161081c90613fbd565b60405180910390fd5b60006002600083815260200190815260200160002090508060000160009054906101000a900460ff161561088e576040517f08c379a000000000000000000000000000000000000000000000000000000000815260040161088590614029565b60405180910390fd5b60018160000160006101000a81548160ff0219169083151502179055503373ffffffffffffffffffffffffffffffffffffffff16827f1aaa800b82997eacb224a5de06c088e277668245cb68c13f3bf4d2fa58e0863160405160405180910390a35050565b60008054906101000a900473ffffffffffffffffffffffffffffffffffffffff1673ffffffffffffffffffffffffffffffffffffffff163373ffffffffffffffffffffffffffffffffffffffff1614610981576040517f08c379a000000000000000000000000000000000000000000000000000000000815260040161097890613fbd565b60405180910390fd5b60006002600085815260200190815260200160002090508060000160009054906101000a900460ff166109e9576040517f08c379a00000000000000000000000000000000000000000000000000000000081526004016109e090614095565b60405180910390fd5b6000816006016000858152602001908152602001600020905060006006811115610a1657610a15613c4e565b5b8160040160009054906101000a900460ff166006811115610a3a57610a39613c4e565b5b03610a7a576040517f08c379a0000000000000000000000000000000000000000000000000000000008152600401610a7190614101565b60405180910390fd5b828160040160006101000a81548160ff02191690836006811115610aa157610aa0613c4e565b5b021790555083857f855d7f62719d90b6dffa5d0c4b7a917b0e8a2fe2521d54486fda68888305e20185604051610ad79190614130565b60405180910390a35050505050565b60008054906101000a900473ffffffffffffffffffffffffffffffffffffffff1673ffffffffffffffffffffffffffffffffffffffff163373ffffffffffffffffffffffffffffffffffffffff1614610b74576040517f08c379a0000000000000000000000000000000000000000000000000000000008152600401610b6b90613fbd565b60405180910390fd5b60006002600085815260200190815260200160002090508060000160009054906101000a900460ff16610bdc576040517f08c379a0000000000000000000000000000000000000000000000000000000008152600401610bd390614095565b60405180910390fd5b6000816006016000858152602001908152602001600020905060006006811115610c0957610c08613c4e565b5b8160040160009054906101000a900460ff166006811115610c2d57610c2c613c4e565b5b14610c6d576040517f08c379a0000000000000000000000000000000000000000000000000000000008152600401610c6490614197565b60405180910390fd5b60008311610cb0576040517f08c379a0000000000000000000000000000000000000000000000000000000008152600401610ca790614203565b60405180910390fd5b8160040160009054906101000a900460ff1615610d28576000610cd28361313e565b905082600101548482610ce59190614252565b1115610d26576040517f08c379a0000000000000000000000000000000000000000000000000000000008152600401610d1d906142d2565b60405180910390fd5b505b82816000018190555060018160040160006101000a81548160ff02191690836006811115610d5957610d58613c4e565b5b02179055508160080184908060018154018082558091505060019003906000526020600020016000909190919091505583857fb59c2d823e6ca395c24829d80f43a97d9c6fd711596372c5a4663af872f4b9d285604051610dba9190613beb565b60405180910390a383857f855d7f62719d90b6dffa5d0c4b7a917b0e8a2fe2521d54486fda68888305e2018360040160009054906101000a900460ff16604051610e049190614130565b60405180910390a35050505050565b60008054906101000a900473ffffffffffffffffffffffffffffffffffffffff1673ffffffffffffffffffffffffffffffffffffffff163373ffffffffffffffffffffffffffffffffffffffff1614610ea1576040517f08c379a0000000000000000000000000000000000000000000000000000000008152600401610e9890613fbd565b60405180910390fd5b6001805414610ee5576040517f08c379a0000000000000000000000000000000000000000000000000000000008152600401610edc9061433e565b60405180910390fd5b600260018190555060006002600085815260200190815260200160002090508060000160009054906101000a900460ff16610f55576040517f08c379a0000000000000000000000000000000000000000000000000000000008152600401610f4c90614095565b60405180910390fd5b8060040160009054906101000a900460ff16610fa6576040517f08c379a0000000000000000000000000000000000000000000000000000000008152600401610f9d906143aa565b60405180910390fd5b600081600601600085815260200190815260200160002090508273ffffffffffffffffffffffffffffffffffffffff168160010160009054906101000a900473ffffffffffffffffffffffffffffffffffffffff1673ffffffffffffffffffffffffffffffffffffffff1614611051576040517f08c379a000000000000000000000000000000000000000000000000000000000815260040161104890614416565b60405180910390fd5b6003600681111561106557611064613c4e565b5b8160040160009054906101000a900460ff16600681111561108957611088613c4e565b5b146110c9576040517f08c379a00000000000000000000000000000000000000000000000000000000081526004016110c090614482565b60405180910390fd5b6000816000015411611110576040517f08c379a0000000000000000000000000000000000000000000000000000000008152600401611107906144ee565b60405180910390fd5b600073ffffffffffffffffffffffffffffffffffffffff168160010160009054906101000a900473ffffffffffffffffffffffffffffffffffffffff1673ffffffffffffffffffffffffffffffffffffffff16036111a3576040517f08c379a000000000000000000000000000000000000000000000000000000000815260040161119a9061455a565b60405180910390fd5b60058160040160006101000a81548160ff021916908360068111156111cb576111ca613c4e565b5b02179055506112028160010160009054906101000a900473ffffffffffffffffffffffffffffffffffffffff1682600001546131b6565b806000015482600201600082825461121a9190614252565b925050819055508060010160009054906101000a900473ffffffffffffffffffffffffffffffffffffffff1673ffffffffffffffffffffffffffffffffffffffff1684867f9ba01c1cf20940d4ad9b32173c4bd46bf426aae91b6cb420123d2aa5e2b76c6f84600001546040516112919190613beb565b60405180910390a483857f855d7f62719d90b6dffa5d0c4b7a917b0e8a2fe2521d54486fda68888305e2018360040160009054906101000a900460ff166040516112db9190614130565b60405180910390a3505060018081905550505050565b6112fb81346132aa565b50565b60008054906101000a900473ffffffffffffffffffffffffffffffffffffffff1673ffffffffffffffffffffffffffffffffffffffff163373ffffffffffffffffffffffffffffffffffffffff161461138c576040517f08c379a000000000000000000000000000000000000000000000000000000000815260040161138390613fbd565b60405180910390fd5b60006002600084815260200190815260200160002090508060000160009054906101000a900460ff166113f4576040517f08c379a00000000000000000000000000000000000000000000000000000000081526004016113eb90614095565b60405180910390fd5b600081600601600084815260200190815260200160002090506002600681111561142157611420613c4e565b5b8160040160009054906101000a900460ff16600681111561144557611444613c4e565b5b14806114865750600360068111156114605761145f613c4e565b5b8160040160009054906101000a900460ff16600681111561148457611483613c4e565b5b145b6114c5576040517f08c379a00000000000000000000000000000000000000000000000000000000081526004016114bc906145c6565b60405180910390fd5b60048160040160006101000a81548160ff021916908360068111156114ed576114ec613c4e565b5b021790555082847f888c5547e7a66deaaeef7cc96fdf1b39154057815e8d0f702c46858d074e66a5336040516115239190613c15565b60405180910390a382847f855d7f62719d90b6dffa5d0c4b7a917b0e8a2fe2521d54486fda68888305e2018360040160009054906101000a900460ff1660405161156d9190614130565b60405180910390a350505050565b60008054906101000a900473ffffffffffffffffffffffffffffffffffffffff1673ffffffffffffffffffffffffffffffffffffffff163373ffffffffffffffffffffffffffffffffffffffff1614611609576040517f08c379a000000000000000000000000000000000000000000000000000000000815260040161160090613fbd565b60405180910390fd5b6000801b830361164e576040517f08c379a000000000000000000000000000000000000000000000000000000000815260040161164590614632565b60405180910390fd5b60008282905011611694576040517f08c379a000000000000000000000000000000000000000000000000000000000815260040161168b9061469e565b60405180910390fd5b81816003600086815260200190815260200160002091826116b69291906148a4565b503373ffffffffffffffffffffffffffffffffffffffff16837fd1dc9dc29f1511c254cde79ebad9e7bb0ded444ad52ff646778ff717e7239fdd84846040516117009291906149b0565b60405180910390a3505050565b80341461174f576040517f08c379a000000000000000000000000000000000000000000000000000000000815260040161174690614a20565b60405180910390fd5b61175982346132aa565b5050565b60008054906101000a900473ffffffffffffffffffffffffffffffffffffffff1673ffffffffffffffffffffffffffffffffffffffff163373ffffffffffffffffffffffffffffffffffffffff16146117eb576040517f08c379a00000000000000000000000000000000000000000000000000000000081526004016117e290613fbd565b60405180910390fd5b600073ffffffffffffffffffffffffffffffffffffffff168173ffffffffffffffffffffffffffffffffffffffff160361185a576040517f08c379a000000000000000000000000000000000000000000000000000000000815260040161185190614a8c565b60405180910390fd5b60006002600085815260200190815260200160002090508060000160009054906101000a900460ff166118c2576040517f08c379a00000000000000000000000000000000000000000000000000000000081526004016118b990614095565b60405180910390fd5b60008160060160008581526020019081526020016000209050600160068111156118ef576118ee613c4e565b5b8160040160009054906101000a900460ff16600681111561191357611912613c4e565b5b148061195457506000600681111561192e5761192d613c4e565b5b8160040160009054906101000a900460ff16600681111561195257611951613c4e565b5b145b611993576040517f08c379a000000000000000000000000000000000000000000000000000000000815260040161198a90614af8565b60405180910390fd5b828160010160006101000a81548173ffffffffffffffffffffffffffffffffffffffff021916908373ffffffffffffffffffffffffffffffffffffffff160217905550600060068111156119ea576119e9613c4e565b5b8160040160009054906101000a900460ff166006811115611a0e57611a0d613c4e565b5b03611a415760018160040160006101000a81548160ff02191690836006811115611a3b57611a3a613c4e565b5b02179055505b83857e07b4da7665cb1a9b434a28d0968f4abf163ba54d5083155486ab73dd83517f85604051611a719190614b6d565b60405180910390a383857f855d7f62719d90b6dffa5d0c4b7a917b0e8a2fe2521d54486fda68888305e2018360040160009054906101000a900460ff16604051611abb9190614130565b60405180910390a35050505050565b60008054906101000a900473ffffffffffffffffffffffffffffffffffffffff1673ffffffffffffffffffffffffffffffffffffffff163373ffffffffffffffffffffffffffffffffffffffff1614611b58576040517f08c379a0000000000000000000000000000000000000000000000000000000008152600401611b4f90613fbd565b60405180910390fd5b60006002600086815260200190815260200160002090508060000160009054906101000a900460ff16611bc0576040517f08c379a0000000000000000000000000000000000000000000000000000000008152600401611bb790614095565b60405180910390fd5b6000816006016000868152602001908152602001600020905060006006811115611bed57611bec613c4e565b5b8160040160009054906101000a900460ff166006811115611c1157611c10613c4e565b5b03611c51576040517f08c379a0000000000000000000000000000000000000000000000000000000008152600401611c4890614bd4565b60405180910390fd5b8383826002019182611c649291906148a4565b5084867ff8ea1fefc4a87b20c49a437e84dffac361b2a837f15920f58d727c93c85951898686604051611c989291906149b0565b60405180910390a3505050505050565b60008054906101000a900473ffffffffffffffffffffffffffffffffffffffff1673ffffffffffffffffffffffffffffffffffffffff163373ffffffffffffffffffffffffffffffffffffffff1614611d36576040517f08c379a0000000000000000000000000000000000000000000000000000000008152600401611d2d90613fbd565b60405180910390fd5b6001805414611d7a576040517f08c379a0000000000000000000000000000000000000000000000000000000008152600401611d719061433e565b60405180910390fd5b6002600181905550611dad828260008054906101000a900473ffffffffffffffffffffffffffffffffffffffff1661346e565b600180819055505050565b600047905090565b60008054906101000a900473ffffffffffffffffffffffffffffffffffffffff1673ffffffffffffffffffffffffffffffffffffffff163373ffffffffffffffffffffffffffffffffffffffff1614611e4e576040517f08c379a0000000000000000000000000000000000000000000000000000000008152600401611e4590613fbd565b60405180910390fd5b60006002600083815260200190815260200160002090508060000160009054906101000a900460ff16611eb6576040517f08c379a0000000000000000000000000000000000000000000000000000000008152600401611ead90614095565b60405180910390fd5b8060040160009054906101000a900460ff1615611f08576040517f08c379a0000000000000000000000000000000000000000000000000000000008152600401611eff90614c40565b60405180910390fd5b6000816001015411611f4f576040517f08c379a0000000000000000000000000000000000000000000000000000000008152600401611f4690614cac565b60405180910390fd5b6000611f5a8261313e565b90508160010154811115611fa3576040517f08c379a0000000000000000000000000000000000000000000000000000000008152600401611f9a906142d2565b60405180910390fd5b60018260040160006101000a81548160ff021916908315150217905550827fbedc4e5ac6876307c4b4b5761039aa2ebce89052490a34e15cc655d9142ba0dc8360010154604051611ff49190613beb565b60405180910390a2505050565b60008054906101000a900473ffffffffffffffffffffffffffffffffffffffff1681565b61202d6136dd565b6002600084815260200190815260200160002060060160008381526020019081526020016000206040518060a0016040529081600082015481526020016001820160009054906101000a900473ffffffffffffffffffffffffffffffffffffffff1673ffffffffffffffffffffffffffffffffffffffff1673ffffffffffffffffffffffffffffffffffffffff1681526020016002820180546120cf90613f40565b80601f01602080910402602001604051908101604052809291908181526020018280546120fb90613f40565b80156121485780601f1061211d57610100808354040283529160200191612148565b820191906000526020600020905b81548152906001019060200180831161212b57829003601f168201915b5050505050815260200160038201805461216190613f40565b80601f016020809104026020016040519081016040528092919081815260200182805461218d90613f40565b80156121da5780601f106121af576101008083540402835291602001916121da565b820191906000526020600020905b8154815290600101906020018083116121bd57829003601f168201915b505050505081526020016004820160009054906101000a900460ff16600681111561220857612207613c4e565b5b600681111561221a57612219613c4e565b5b81525050905092915050565b60006002600086815260200190815260200160002090508060000160009054906101000a900460ff1661228e576040517f08c379a000000000000000000000000000000000000000000000000000000000815260040161228590614095565b60405180910390fd5b60008160060160008681526020019081526020016000209050600160068111156122bb576122ba613c4e565b5b8160040160009054906101000a900460ff1660068111156122df576122de613c4e565b5b14806123205750600460068111156122fa576122f9613c4e565b5b8160040160009054906101000a900460ff16600681111561231e5761231d613c4e565b5b145b61235f576040517f08c379a000000000000000000000000000000000000000000000000000000000815260040161235690614d18565b60405180910390fd5b600073ffffffffffffffffffffffffffffffffffffffff168160010160009054906101000a900473ffffffffffffffffffffffffffffffffffffffff1673ffffffffffffffffffffffffffffffffffffffff16036123f2576040517f08c379a00000000000000000000000000000000000000000000000000000000081526004016123e990614d84565b60405180910390fd5b8060010160009054906101000a900473ffffffffffffffffffffffffffffffffffffffff1673ffffffffffffffffffffffffffffffffffffffff163373ffffffffffffffffffffffffffffffffffffffff1614612484576040517f08c379a000000000000000000000000000000000000000000000000000000000815260040161247b90614df0565b60405180910390fd5b83838260030191826124979291906148a4565b5060405180604001604052803373ffffffffffffffffffffffffffffffffffffffff16815260200185858080601f016020809104026020016040519081016040528093929190818152602001838380828437600081840152601f19601f8201169050808301925050505050505081525082600701600087815260200190815260200160002060008201518160000160006101000a81548173ffffffffffffffffffffffffffffffffffffffff021916908373ffffffffffffffffffffffffffffffffffffffff16021790555060208201518160010190816125789190614e10565b5090505060028160040160006101000a81548160ff021916908360068111156125a4576125a3613c4e565b5b02179055503373ffffffffffffffffffffffffffffffffffffffff1685877f380904a35de4f0af1fc624c50d5e175bc3d642a207ed882e3a7e1ec0606ac5d787876040516125f39291906149b0565b60405180910390a484867f855d7f62719d90b6dffa5d0c4b7a917b0e8a2fe2521d54486fda68888305e2018360040160009054906101000a900460ff1660405161263d9190614130565b60405180910390a3505050505050565b60008054906101000a900473ffffffffffffffffffffffffffffffffffffffff1673ffffffffffffffffffffffffffffffffffffffff163373ffffffffffffffffffffffffffffffffffffffff16146126db576040517f08c379a00000000000000000000000000000000000000000000000000000000081526004016126d290613fbd565b60405180910390fd5b600180541461271f576040517f08c379a00000000000000000000000000000000000000000000000000000000081526004016127169061433e565b60405180910390fd5b600260018190555060006002600084815260200190815260200160002090508060000160009054906101000a900460ff1661278f576040517f08c379a000000000000000000000000000000000000000000000000000000000815260040161278690614095565b60405180910390fd5b8060040160009054906101000a900460ff166127e0576040517f08c379a00000000000000000000000000000000000000000000000000000000081526004016127d7906143aa565b60405180910390fd5b600081600601600084815260200190815260200160002090506003600681111561280d5761280c613c4e565b5b8160040160009054906101000a900460ff16600681111561283157612830613c4e565b5b14612871576040517f08c379a000000000000000000000000000000000000000000000000000000000815260040161286890614482565b60405180910390fd5b60008160000154116128b8576040517f08c379a00000000000000000000000000000000000000000000000000000000081526004016128af906144ee565b60405180910390fd5b600073ffffffffffffffffffffffffffffffffffffffff168160010160009054906101000a900473ffffffffffffffffffffffffffffffffffffffff1673ffffffffffffffffffffffffffffffffffffffff160361294b576040517f08c379a00000000000000000000000000000000000000000000000000000000081526004016129429061455a565b60405180910390fd5b60058160040160006101000a81548160ff0219169083600681111561297357612972613c4e565b5b02179055506129aa8160010160009054906101000a900473ffffffffffffffffffffffffffffffffffffffff1682600001546131b6565b80600001548260020160008282546129c29190614252565b925050819055508060010160009054906101000a900473ffffffffffffffffffffffffffffffffffffffff1673ffffffffffffffffffffffffffffffffffffffff1683857f9ba01c1cf20940d4ad9b32173c4bd46bf426aae91b6cb420123d2aa5e2b76c6f8460000154604051612a399190613beb565b60405180910390a482847f855d7f62719d90b6dffa5d0c4b7a917b0e8a2fe2521d54486fda68888305e2018360040160009054906101000a900460ff16604051612a839190614130565b60405180910390a35050600180819055505050565b60008054906101000a900473ffffffffffffffffffffffffffffffffffffffff1673ffffffffffffffffffffffffffffffffffffffff163373ffffffffffffffffffffffffffffffffffffffff1614612b26576040517f08c379a0000000000000000000000000000000000000000000000000000000008152600401612b1d90613fbd565b60405180910390fd5b612b2f81610797565b50565b60006002600084815260200190815260200160002060050160008373ffffffffffffffffffffffffffffffffffffffff1673ffffffffffffffffffffffffffffffffffffffff16815260200190815260200160002054905092915050565b60008054906101000a900473ffffffffffffffffffffffffffffffffffffffff1673ffffffffffffffffffffffffffffffffffffffff163373ffffffffffffffffffffffffffffffffffffffff1614612c1e576040517f08c379a0000000000000000000000000000000000000000000000000000000008152600401612c1590613fbd565b60405180910390fd5b6001805414612c62576040517f08c379a0000000000000000000000000000000000000000000000000000000008152600401612c599061433e565b60405180910390fd5b6002600181905550612c7583838361346e565b60018081905550505050565b60008060008060006002600087815260200190815260200160002090508060010154816002015482600301548360040160009054906101000a900460ff169450945094509450509193509193565b60006002600083815260200190815260200160002060000160009054906101000a900460ff169050919050565b600060026000838152602001908152602001600020600101549050919050565b60008054906101000a900473ffffffffffffffffffffffffffffffffffffffff1673ffffffffffffffffffffffffffffffffffffffff163373ffffffffffffffffffffffffffffffffffffffff1614612daa576040517f08c379a0000000000000000000000000000000000000000000000000000000008152600401612da190613fbd565b60405180910390fd5b600073ffffffffffffffffffffffffffffffffffffffff168173ffffffffffffffffffffffffffffffffffffffff1603612e19576040517f08c379a0000000000000000000000000000000000000000000000000000000008152600401612e1090614f2e565b60405180910390fd5b806000806101000a81548173ffffffffffffffffffffffffffffffffffffffff021916908373ffffffffffffffffffffffffffffffffffffffff16021790555050565b6060600360008381526020019081526020016000208054612e7c90613f40565b80601f0160208091040260200160405190810160405280929190818152602001828054612ea890613f40565b8015612ef55780601f10612eca57610100808354040283529160200191612ef5565b820191906000526020600020905b815481529060010190602001808311612ed857829003601f168201915b50505050509050919050565b60008054906101000a900473ffffffffffffffffffffffffffffffffffffffff1673ffffffffffffffffffffffffffffffffffffffff163373ffffffffffffffffffffffffffffffffffffffff1614612f8f576040517f08c379a0000000000000000000000000000000000000000000000000000000008152600401612f8690613fbd565b60405180910390fd5b60006002600084815260200190815260200160002090508060000160009054906101000a900460ff16612ff7576040517f08c379a0000000000000000000000000000000000000000000000000000000008152600401612fee90614095565b60405180910390fd5b600081600601600084815260200190815260200160002090506002600681111561302457613023613c4e565b5b8160040160009054906101000a900460ff16600681111561304857613047613c4e565b5b14613088576040517f08c379a000000000000000000000000000000000000000000000000000000000815260040161307f906145c6565b60405180910390fd5b60038160040160006101000a81548160ff021916908360068111156130b0576130af613c4e565b5b021790555082847f9ffbb52f2a1362273cd74689a516ca4f52c4282dc13e2e68b7e0646a9a7af7a3336040516130e69190613c15565b60405180910390a382847f855d7f62719d90b6dffa5d0c4b7a917b0e8a2fe2521d54486fda68888305e2018360040160009054906101000a900460ff166040516131309190614130565b60405180910390a350505050565b6000808260080180549050905060005b818110156131af5783600601600085600801838154811061317257613171614f4e565b5b90600052602060002001548152602001908152602001600020600001548361319a9190614252565b925080806131a790614f7d565b91505061314e565b5050919050565b804710156131f9576040517f08c379a00000000000000000000000000000000000000000000000000000000081526004016131f090615011565b60405180910390fd5b60008273ffffffffffffffffffffffffffffffffffffffff168260405161321f90615062565b60006040518083038185875af1925050503d806000811461325c576040519150601f19603f3d011682016040523d82523d6000602084013e613261565b606091505b50509050806132a5576040517f08c379a000000000000000000000000000000000000000000000000000000000815260040161329c906150c3565b60405180910390fd5b505050565b600081116132ed576040517f08c379a00000000000000000000000000000000000000000000000000000000081526004016132e49061512f565b60405180910390fd5b60006002600084815260200190815260200160002090508060000160009054906101000a900460ff16613355576040517f08c379a000000000000000000000000000000000000000000000000000000000815260040161334c90614095565b60405180910390fd5b8060040160009054906101000a900460ff16156133a7576040517f08c379a000000000000000000000000000000000000000000000000000000000815260040161339e90614af8565b60405180910390fd5b818160010160008282546133bb9190614252565b92505081905550818160050160003373ffffffffffffffffffffffffffffffffffffffff1673ffffffffffffffffffffffffffffffffffffffff16815260200190815260200160002060008282546134139190614252565b925050819055503373ffffffffffffffffffffffffffffffffffffffff16837fe030e47e27825a2ad1b19e4cf2e70bfbfb3124af275c7727a82b114ba7b29a85846040516134619190613beb565b60405180910390a3505050565b60006002600085815260200190815260200160002090508060000160009054906101000a900460ff166134d6576040517f08c379a00000000000000000000000000000000000000000000000000000000081526004016134cd90614095565b60405180910390fd5b600081600601600085815260200190815260200160002090506004600681111561350357613502613c4e565b5b8160040160009054906101000a900460ff16600681111561352757613526613c4e565b5b14613567576040517f08c379a000000000000000000000000000000000000000000000000000000000815260040161355e9061519b565b60405180910390fd5b60008160000154116135ae576040517f08c379a00000000000000000000000000000000000000000000000000000000081526004016135a5906144ee565b60405180910390fd5b60068160040160006101000a81548160ff021916908360068111156135d6576135d5613c4e565b5b02179055506135e98382600001546131b6565b80600001548260030160008282546136019190614252565b925050819055508273ffffffffffffffffffffffffffffffffffffffff1684867f2ed91a76e9f5e527a4f6a25b562325d498c5f3a02cbd263c1abf33c8fb6bce7784600001546040516136549190613beb565b60405180910390a483857f855d7f62719d90b6dffa5d0c4b7a917b0e8a2fe2521d54486fda68888305e2018360040160009054906101000a900460ff1660405161369e9190614130565b60405180910390a35050505050565b6040518060400160405280600073ffffffffffffffffffffffffffffffffffffffff168152602001606081525090565b6040518060a0016040528060008152602001600073ffffffffffffffffffffffffffffffffffffffff16815260200160608152602001606081526020016000600681111561372e5761372d613c4e565b5b81525090565b600080fd5b600080fd5b6000819050919050565b6137518161373e565b811461375c57600080fd5b50565b60008135905061376e81613748565b92915050565b6000806040838503121561378b5761378a613734565b5b60006137998582860161375f565b92505060206137aa8582860161375f565b9150509250929050565b600073ffffffffffffffffffffffffffffffffffffffff82169050919050565b60006137df826137b4565b9050919050565b6137ef816137d4565b82525050565b600081519050919050565b600082825260208201905092915050565b60005b8381101561382f578082015181840152602081019050613814565b60008484015250505050565b6000601f19601f8301169050919050565b6000613857826137f5565b6138618185613800565b9350613871818560208601613811565b61387a8161383b565b840191505092915050565b600060408301600083015161389d60008601826137e6565b50602083015184820360208601526138b5828261384c565b9150508091505092915050565b600060208201905081810360008301526138dc8184613885565b905092915050565b6000602082840312156138fa576138f9613734565b5b60006139088482850161375f565b91505092915050565b6007811061391e57600080fd5b50565b60008135905061393081613911565b92915050565b60008060006060848603121561394f5761394e613734565b5b600061395d8682870161375f565b935050602061396e8682870161375f565b925050604061397f86828701613921565b9150509250925092565b6000806000606084860312156139a2576139a1613734565b5b60006139b08682870161375f565b93505060206139c18682870161375f565b92505060406139d28682870161375f565b9150509250925092565b60006139e7826137b4565b9050919050565b6139f7816139dc565b8114613a0257600080fd5b50565b600081359050613a14816139ee565b92915050565b600080600060608486031215613a3357613a32613734565b5b6000613a418682870161375f565b9350506020613a528682870161375f565b9250506040613a6386828701613a05565b9150509250925092565b6000819050919050565b613a8081613a6d565b8114613a8b57600080fd5b50565b600081359050613a9d81613a77565b92915050565b600080fd5b600080fd5b600080fd5b60008083601f840112613ac857613ac7613aa3565b5b8235905067ffffffffffffffff811115613ae557613ae4613aa8565b5b602083019150836001820283011115613b0157613b00613aad565b5b9250929050565b600080600060408486031215613b2157613b20613734565b5b6000613b2f86828701613a8e565b935050602084013567ffffffffffffffff811115613b5057613b4f613739565b5b613b5c86828701613ab2565b92509250509250925092565b60008060008060608587031215613b8257613b81613734565b5b6000613b908782880161375f565b9450506020613ba18782880161375f565b935050604085013567ffffffffffffffff811115613bc257613bc1613739565b5b613bce87828801613ab2565b925092505092959194509250565b613be58161373e565b82525050565b6000602082019050613c006000830184613bdc565b92915050565b613c0f816137d4565b82525050565b6000602082019050613c2a6000830184613c06565b92915050565b613c398161373e565b82525050565b613c48816139dc565b82525050565b7f4e487b7100000000000000000000000000000000000000000000000000000000600052602160045260246000fd5b60078110613c8e57613c8d613c4e565b5b50565b6000819050613c9f82613c7d565b919050565b6000613caf82613c91565b9050919050565b613cbf81613ca4565b82525050565b600060a083016000830151613cdd6000860182613c30565b506020830151613cf06020860182613c3f565b5060408301518482036040860152613d08828261384c565b91505060608301518482036060860152613d22828261384c565b9150506080830151613d376080860182613cb6565b508091505092915050565b60006020820190508181036000830152613d5c8184613cc5565b905092915050565b613d6d816137d4565b8114613d7857600080fd5b50565b600081359050613d8a81613d64565b92915050565b60008060408385031215613da757613da6613734565b5b6000613db58582860161375f565b9250506020613dc685828601613d7b565b9150509250929050565b60008115159050919050565b613de581613dd0565b82525050565b6000608082019050613e006000830187613bdc565b613e0d6020830186613bdc565b613e1a6040830185613bdc565b613e276060830184613ddc565b95945050505050565b6000602082019050613e456000830184613ddc565b92915050565b600060208284031215613e6157613e60613734565b5b6000613e6f84828501613d7b565b91505092915050565b600060208284031215613e8e57613e8d613734565b5b6000613e9c84828501613a8e565b91505092915050565b600082825260208201905092915050565b6000613ec1826137f5565b613ecb8185613ea5565b9350613edb818560208601613811565b613ee48161383b565b840191505092915050565b60006020820190508181036000830152613f098184613eb6565b905092915050565b7f4e487b7100000000000000000000000000000000000000000000000000000000600052602260045260246000fd5b60006002820490506001821680613f5857607f821691505b602082108103613f6b57613f6a613f11565b5b50919050565b7f6e6f74206f776e65720000000000000000000000000000000000000000000000600082015250565b6000613fa7600983613ea5565b9150613fb282613f71565b602082019050919050565b60006020820190508181036000830152613fd681613f9a565b9050919050565b7f736368656d652065786973747300000000000000000000000000000000000000600082015250565b6000614013600d83613ea5565b915061401e82613fdd565b602082019050919050565b6000602082019050818103600083015261404281614006565b9050919050565b7f736368656d65206d697373696e67000000000000000000000000000000000000600082015250565b600061407f600e83613ea5565b915061408a82614049565b602082019050919050565b600060208201905081810360008301526140ae81614072565b9050919050565b7f6d697373696e6700000000000000000000000000000000000000000000000000600082015250565b60006140eb600783613ea5565b91506140f6826140b5565b602082019050919050565b6000602082019050818103600083015261411a816140de565b9050919050565b61412a81613ca4565b82525050565b60006020820190506141456000830184614121565b92915050565b7f616c726561647920657869737473000000000000000000000000000000000000600082015250565b6000614181600e83613ea5565b915061418c8261414b565b602082019050919050565b600060208201905081810360008301526141b081614174565b9050919050565b7f7a65726f20616d6f756e74000000000000000000000000000000000000000000600082015250565b60006141ed600b83613ea5565b91506141f8826141b7565b602082019050919050565b6000602082019050818103600083015261421c816141e0565b9050919050565b7f4e487b7100000000000000000000000000000000000000000000000000000000600052601160045260246000fd5b600061425d8261373e565b91506142688361373e565b92508282019050808211156142805761427f614223565b5b92915050565b7f6d696c6573746f6e6573206578636565642066756e6473000000000000000000600082015250565b60006142bc601783613ea5565b91506142c782614286565b602082019050919050565b600060208201905081810360008301526142eb816142af565b9050919050565b7f7265656e7472616e637900000000000000000000000000000000000000000000600082015250565b6000614328600a83613ea5565b9150614333826142f2565b602082019050919050565b600060208201905081810360008301526143578161431b565b9050919050565b7f6e6f74206c6f636b656400000000000000000000000000000000000000000000600082015250565b6000614394600a83613ea5565b915061439f8261435e565b602082019050919050565b600060208201905081810360008301526143c381614387565b9050919050565b7f76656e646f72206d69736d617463680000000000000000000000000000000000600082015250565b6000614400600f83613ea5565b915061440b826143ca565b602082019050919050565b6000602082019050818103600083015261442f816143f3565b9050919050565b7f6e6f7420617070726f7665640000000000000000000000000000000000000000600082015250565b600061446c600c83613ea5565b915061447782614436565b602082019050919050565b6000602082019050818103600083015261449b8161445f565b9050919050565b7f6e6f20616d6f756e740000000000000000000000000000000000000000000000600082015250565b60006144d8600983613ea5565b91506144e3826144a2565b602082019050919050565b60006020820190508181036000830152614507816144cb565b9050919050565b7f6e6f2076656e646f720000000000000000000000000000000000000000000000600082015250565b6000614544600983613ea5565b915061454f8261450e565b602082019050919050565b6000602082019050818103600083015261457381614537565b9050919050565b7f77726f6e67207374617475730000000000000000000000000000000000000000600082015250565b60006145b0600c83613ea5565b91506145bb8261457a565b602082019050919050565b600060208201905081810360008301526145df816145a3565b9050919050565b7f696e766f6963654964207a65726f000000000000000000000000000000000000600082015250565b600061461c600e83613ea5565b9150614627826145e6565b602082019050919050565b6000602082019050818103600083015261464b8161460f565b9050919050565b7f697066734861736820656d707479000000000000000000000000000000000000600082015250565b6000614688600e83613ea5565b915061469382614652565b602082019050919050565b600060208201905081810360008301526146b78161467b565b9050919050565b600082905092915050565b7f4e487b7100000000000000000000000000000000000000000000000000000000600052604160045260246000fd5b60008190508160005260206000209050919050565b60006020601f8301049050919050565b600082821b905092915050565b60006008830261475a7fffffffffffffffffffffffffffffffffffffffffffffffffffffffffffffffff8261471d565b614764868361471d565b95508019841693508086168417925050509392505050565b6000819050919050565b60006147a161479c6147978461373e565b61477c565b61373e565b9050919050565b6000819050919050565b6147bb83614786565b6147cf6147c7826147a8565b84845461472a565b825550505050565b600090565b6147e46147d7565b6147ef8184846147b2565b505050565b5b81811015614813576148086000826147dc565b6001810190506147f5565b5050565b601f82111561485857614829816146f8565b6148328461470d565b81016020851015614841578190505b61485561484d8561470d565b8301826147f4565b50505b505050565b600082821c905092915050565b600061487b6000198460080261485d565b1980831691505092915050565b6000614894838361486a565b9150826002028217905092915050565b6148ae83836146be565b67ffffffffffffffff8111156148c7576148c66146c9565b5b6148d18254613f40565b6148dc828285614817565b6000601f83116001811461490b57600084156148f9578287013590505b6149038582614888565b86555061496b565b601f198416614919866146f8565b60005b828110156149415784890135825560018201915060208501945060208101905061491c565b8683101561495e578489013561495a601f89168261486a565b8355505b6001600288020188555050505b50505050505050565b82818337600083830152505050565b600061498f8385613ea5565b935061499c838584614974565b6149a58361383b565b840190509392505050565b600060208201905081810360008301526149cb818486614983565b90509392505050565b7f616d6f756e74206d69736d617463680000000000000000000000000000000000600082015250565b6000614a0a600f83613ea5565b9150614a15826149d4565b602082019050919050565b60006020820190508181036000830152614a39816149fd565b9050919050565b7f76656e646f72207a65726f000000000000000000000000000000000000000000600082015250565b6000614a76600b83613ea5565b9150614a8182614a40565b602082019050919050565b60006020820190508181036000830152614aa581614a69565b9050919050565b7f6c6f636b65640000000000000000000000000000000000000000000000000000600082015250565b6000614ae2600683613ea5565b9150614aed82614aac565b602082019050919050565b60006020820190508181036000830152614b1181614ad5565b9050919050565b6000614b33614b2e614b29846137b4565b61477c565b6137b4565b9050919050565b6000614b4582614b18565b9050919050565b6000614b5782614b3a565b9050919050565b614b6781614b4c565b82525050565b6000602082019050614b826000830184614b5e565b92915050565b7f6d696c6573746f6e65206d697373696e67000000000000000000000000000000600082015250565b6000614bbe601183613ea5565b9150614bc982614b88565b602082019050919050565b60006020820190508181036000830152614bed81614bb1565b9050919050565b7f616c7265616479206c6f636b6564000000000000000000000000000000000000600082015250565b6000614c2a600e83613ea5565b9150614c3582614bf4565b602082019050919050565b60006020820190508181036000830152614c5981614c1d565b9050919050565b7f6e6f2066756e6473000000000000000000000000000000000000000000000000600082015250565b6000614c96600883613ea5565b9150614ca182614c60565b602082019050919050565b60006020820190508181036000830152614cc581614c89565b9050919050565b7f63616e6e6f74207375626d697400000000000000000000000000000000000000600082015250565b6000614d02600d83613ea5565b9150614d0d82614ccc565b602082019050919050565b60006020820190508181036000830152614d3181614cf5565b9050919050565b7f76656e646f72206e6f7420736574000000000000000000000000000000000000600082015250565b6000614d6e600e83613ea5565b9150614d7982614d38565b602082019050919050565b60006020820190508181036000830152614d9d81614d61565b9050919050565b7f6e6f742076656e646f7200000000000000000000000000000000000000000000600082015250565b6000614dda600a83613ea5565b9150614de582614da4565b602082019050919050565b60006020820190508181036000830152614e0981614dcd565b9050919050565b614e19826137f5565b67ffffffffffffffff811115614e3257614e316146c9565b5b614e3c8254613f40565b614e47828285614817565b600060209050601f831160018114614e7a5760008415614e68578287015190505b614e728582614888565b865550614eda565b601f198416614e88866146f8565b60005b82811015614eb057848901518255600182019150602085019450602081019050614e8b565b86831015614ecd5784890151614ec9601f89168261486a565b8355505b6001600288020188555050505b505050505050565b7f7a65726f206f776e657200000000000000000000000000000000000000000000600082015250565b6000614f18600a83613ea5565b9150614f2382614ee2565b602082019050919050565b60006020820190508181036000830152614f4781614f0b565b9050919050565b7f4e487b7100000000000000000000000000000000000000000000000000000000600052603260045260246000fd5b6000614f888261373e565b91507fffffffffffffffffffffffffffffffffffffffffffffffffffffffffffffffff8203614fba57614fb9614223565b5b600182019050919050565b7f696e73756666696369656e742066756e64730000000000000000000000000000600082015250565b6000614ffb601283613ea5565b915061500682614fc5565b602082019050919050565b6000602082019050818103600083015261502a81614fee565b9050919050565b600081905092915050565b50565b600061504c600083615031565b91506150578261503c565b600082019050919050565b600061506d8261503f565b9150819050919050565b7f7472616e73666572206661696c65640000000000000000000000000000000000600082015250565b60006150ad600f83613ea5565b91506150b882615077565b602082019050919050565b600060208201905081810360008301526150dc816150a0565b9050919050565b7f6e6f2076616c7565000000000000000000000000000000000000000000000000600082015250565b6000615119600883613ea5565b9150615124826150e3565b602082019050919050565b600060208201905081810360008301526151488161510c565b9050919050565b7f6e6f742072656a65637465640000000000000000000000000000000000000000600082015250565b6000615185600c83613ea5565b91506151908261514f565b602082019050919050565b600060208201905081810360008301526151b481615178565b905091905056fea2646970667358221220180c7997d166dc1e2ea77e6f1891239bf3c2042a532175268133dad8f83a242964736f6c63430008140033",
  "linkReferences": {},
  "deployedLinkReferences": {}
}